:0400000007EF00F016
:0A00080069820BED08F000EF0BF029
:10100000003738392F3435362A3132332D23303DED
:051010002B2569000022
:101016000600FACF57F0FBCF58F0D9CF59F0DACF08
:101026005AF0F3CF5BF0F4CF5CF0F2A61DEF08F0B8
:101036001FEF08F038EF08F0F2A024EF08F026EFD3
:1010460008F038EF08F081AA2BEF08F02DEF08F032
:101056002FEF08F062EC0BF081BA34EF08F036EFB0
:1010660008F038EF08F062EC0BF0F2A63DEF08F05E
:101076003FEF08F058EF08F0F2A044EF08F046EF13
:1010860008F058EF08F081A84BEF08F04DEF08F094
:101096004FEF08F079EC0BF081B854EF08F056EFFB
:1010A60008F058EF08F079EC0BF0F2A65DEF08F0C7
:1010B6005FEF08F078EF08F0F2A064EF08F066EF53
:1010C60008F078EF08F081AC6BEF08F06DEF08F0F0
:1010D6006FEF08F04BEC0BF081BC74EF08F076EF85
:1010E60008F078EF08F04BEC0BF0F2A67DEF08F075
:1010F6007FEF08F098EF08F0F2A084EF08F086EF93
:1011060008F098EF08F081AE8BEF08F08DEF08F04D
:101116008FEF08F034EC0BF081BE94EF08F096EFF9
:1011260008F098EF08F034EC0BF0F2A89DEF08F009
:101136009FEF08F0A8EF08F0F2A2A4EF08F0A6EFE0
:1011460008F0A8EF08F0F7EC0BF0F0A6ADEF08F00A
:10115600AFEF08F0B8EF08F0F0A0B4EF08F0B6EF84
:1011660008F0B8EF08F0F5EC0BF0F0A8BDEF08F0CA
:10117600BFEF08F0C8EF08F0F0A2C4EF08F0C6EF22
:1011860008F0C8EF08F0F3EC0BF05CC0F4FF5BC0AE
:10119600F3FF5AC0DAFF59C0D9FF58C0FBFF57C04A
:1011A600FAFF69921100010E636E5D50D8B4DEEF4E
:1011B60008F0E0EF08F0F0EF08F05D50D96EDA6A5B
:1011C600DF30E832E832070B5E6E070E5E64EEEF44
:1011D60008F0F0EF08F047EF09F0000E636E5DEFE0
:1011E60009F05D50D96EDA6ADF30E832E832070B73
:1011F6005E6E010E5F6E5E2A03EF09F0D8905F36D1
:101206005E2E01EF09F05F50FF0A606E5D50D96EE9
:10121600DA6ADF50070B020DF350150FD96EDA6A42
:10122600DECF61F0DDCF62F061C0D9FF62C0DAFFC8
:101236006050DF165DEF09F05D50D96EDA6ADF3077
:10124600E832E832070B5E6E010E5F6E5E2A2EEF05
:1012560009F0D8905F365E2E2CEF09F05D50D96EFE
:10126600DA6ADF50070B020DF350150FD96EDA6AF2
:10127600DECF60F0DDCF61F060C0D9FF61C0DAFF7C
:101286005F50DF125DEF09F05D50D96EDA6ADFBCA0
:101296004FEF09F052EF09F0010E53EF09F0000E7F
:1012A600000AD8B4F4EF08F0010AD8B41FEF09F029
:1012B600F0EF08F063501200010E646E5D50D8B472
:1012C60067EF09F069EF09F079EF09F05D50D96E23
:1012D600DA6ADF30E832E832070B5F6E070E5F64CA
:1012E60077EF09F079EF09F0D0EF09F0000E646EA0
:1012F600E5EF09F05D50D96EDA6ADF30E832E832A0
:10130600070B5F6E010E606E5F2A8CEF09F0D890B6
:1013160060365F2E8AEF09F06050FF0A616E5D50FD
:10132600D96EDA6ADF50070B020DF3500B0FD96E38
:10133600DA6ADECF62F0DDCF63F062C0D9FF63C048
:10134600DAFF6150DF16E5EF09F05D50D96EDA6A13
:10135600DF30E832E832070B5F6E010E606E5F2AFF
:10136600B7EF09F0D89060365F2EB5EF09F05D5003
:10137600D96EDA6ADF50070B020DF3500B0FD96EE8
:10138600DA6ADECF61F0DDCF62F061C0D9FF62C0FC
:10139600DAFF6050DF12E5EF09F05E505F6E606ABB
:1013A6006050000AD8B4DAEF09F079EF09F05F501F
:1013B600000AD8B47DEF09F0010AD8B4A8EF09F005
:1013C60079EF09F0645012006450D8A4EDEF09F0EB
:1013D600EFEF09F0F3EF09F0000E656E3AEF0AF051
:1013E6006450020F5D6ED6EC08F0656E1FEF0AF0D2
:1013F6006450D96EDA6ADECF39F0DDCF3AF03AEFD3
:101406000AF06450D96EDA6ADECF37F0DDCF38F0F5
:101416003AEF0AF06450D96EDA6ADECF35F0DDCFE6
:1014260036F03AEF0AF06450D96EDA6ADECF33F05E
:10143600DDCF34F03AEF0AF06450D96EDA6A020E64
:10144600D926DF30E832E832070B040AD8B4FBEFBE
:1014560009F0010AD8B404EF0AF0030AD8B40DEF74
:101466000AF0010AD8B416EF0AF0EFEF09F065505A
:101476001200010E566E5150D8B444EF0AF046EFF2
:101486000AF056EF0AF05150D96EDA6ADF30E832C8
:10149600E832070B526E070E526454EF0AF056EF0D
:1014A6000AF05AEF0AF0000E566E80EF0AF051501D
:1014B600D96EDA6ADF30E832E832070B526E010E77
:1014C600536E522A69EF0AF0D8905336522E67EFC0
:1014D6000AF05150D96EDA6ADF50070B020DF3504D
:1014E600010FD96EDA6ADECF54F0DDCF55F054C065
:1014F600D9FF55C0DAFF5350DF1A56501200655017
:10150600D8B488EF0AF08AEF0AF09AEF0AF065502D
:10151600D96EDA6ADF30E832E832070B666E070EFC
:10152600666498EF0AF09AEF0AF09EEF0AF0000E52
:10153600676EAFEF0AF065C05DF0D6EC08F0676E37
:1015460065C05DF06550D96EDA6A000EDFBE010E29
:101556005E6E5FEC09F0676E675012002B0E666ECA
:10156600DAEC0AF0686E270E666EDAEC0AF0686E40
:10157600230E666EDAEC0AF0686E1F0E666EDAEC03
:101586000AF0686E320E656E82EC0AF0686E310EF5
:10159600656E82EC0AF0686E300E656E82EC0AF0BB
:1015A600686E2F0E656E82EC0AF0686E1200665049
:1015B600D8A4E0EF0AF0E2EF0AF0E6EF0AF0000E38
:1015C600676EFEEF0AF066C05DF0B3EC0BF0676E77
:1015D60066C05DF0C4EC0BF0676E66C05DF090EC23
:1015E6000BF0676E66C064F0E7EC09F066C05DF06C
:1015F600A2EC0BF0676E67501200360EF66E160EF2
:10160600F76E000EF86E00EE01F010EE32F00900F3
:10161600F5CFEEFFE550E150FAE100EE33F01E0E95
:10162600EE6AE806FDE1699069920001D5EF0BF0DC
:10163600800F810F820F830F840F890F8A0F8B0F04
:101646008C0F8D0F920F930F940F950F960FDA173D
:101656007901B6177100C2176900CE1761011A1217
:101666000A02F29033503410D8B43CEF0BF03EEF40
:101676000BF04AEF0BF002D84AEF0BF00500FA6EBA
:101686003350FD6E3450FE6EFF6AFA50120012009F
:10169600F29035503610D8B453EF0BF055EF0BF0EF
:1016A60061EF0BF002D861EF0BF00500FA6E3550D2
:1016B600FD6E3650FE6EFF6AFA5012001200F2906E
:1016C60037503810D8B46AEF0BF06CEF0BF078EFA8
:1016D6000BF002D878EF0BF00500FA6E3750FD6E6E
:1016E6003850FE6EFF6AFA5012001200F29039501E
:1016F6003A10D8B481EF0BF083EF0BF08FEF0BF0BD
:1017060002D88FEF0BF00500FA6E3950FD6E3A5095
:10171600FE6EFF6AFA5012001200010E5E6E5D50F8
:10172600D8A498EF0BF09AEF0BF09EEF0BF0000E9B
:101736005E6EA0EF0BF0F28EF28C5E501200010E80
:101746005E6E5D50D8A4AAEF0BF0ACEF0BF0B0EFD5
:101756000BF0000E5E6EB1EF0BF0F2865E501200DB
:10176600010E5E6E5D50D8A4BBEF0BF0BDEF0BF023
:10177600C1EF0BF0000E5E6EC2EF0BF0F2965E50FC
:101786001200010E5E6E5D50D8A4CCEF0BF0CEEFCA
:101796000BF0D2EF0BF0000E5E6ED3EF0BF0F29073
:1017A6005E501200B1EC0AF0D7EF0BF007EF00F035
:1017B600300E516E3CEC0AF0686E1200310E516E1E
:1017C6003CEC0AF0686E1200320E516E3CEC0AF0E8
:1017D600686E12002F0E516E3CEC0AF0686E120015
:0C17E600F0921200F0901200F29212003B
:020000040030CA
:0E000000FF021F1EFF8181FF0FC00FE00F40A7
:00000001FF
