:040000002AEF0CF0E7
:10100000003738392F3435362A3132332D23303DED
:051010002B2569000022
:10101600010E3D6E3750D8B413EF08F015EF08F007
:1010260025EF08F03750D96EDA6ADF30E832E83259
:10103600070B386E070E386423EF08F025EF08F02B
:101046007CEF08F0000E3D6E92EF08F03750D96E37
:10105600DA6ADF30E832E832070B386E010E396E95
:10106600382A38EF08F0D8903936382E36EF08F09F
:101076003950FF0A3A6E3750D96EDA6ADF50070BDD
:10108600020DF350150FD96EDA6ADECF3BF0DDCFD5
:101096003CF03BC0D9FF3CC0DAFF3A50DF1692EF76
:1010A60008F03750D96EDA6ADF30E832E832070BDB
:1010B600386E010E396E382A63EF08F0D89039364B
:1010C600382E61EF08F03750D96EDA6ADF50070B19
:1010D600020DF350150FD96EDA6ADECF3AF0DDCF86
:1010E6003BF03AC0D9FF3BC0DAFF3950DF1292EF2E
:1010F60008F03750D96EDA6ADFBC84EF08F087EF64
:1011060008F0010E88EF08F0000E000AD8B429EFA7
:1011160008F0010AD8B454EF08F025EF08F03D5066
:101126001200010E3E6E3750D8B49CEF08F09EEFC9
:1011360008F0AEEF08F03750D96EDA6ADF30E832E1
:10114600E832070B396E070E3964ACEF08F0AEEFE4
:1011560008F005EF09F0000E3E6E1AEF09F0375061
:10116600D96EDA6ADF30E832E832070B396E010EE3
:101176003A6E392AC1EF08F0D8903A36392EBFEFC9
:1011860008F03A50FF0A3B6E3750D96EDA6ADF50E4
:10119600070B020DF3500B0FD96EDA6ADECF3CF067
:1011A600DDCF3DF03CC0D9FF3DC0DAFF3B50DF1636
:1011B6001AEF09F03750D96EDA6ADF30E832E832D2
:1011C600070B396E010E3A6E392AECEF08F0D8900B
:1011D6003A36392EEAEF08F03750D96EDA6ADF5020
:1011E600070B020DF3500B0FD96EDA6ADECF3BF018
:1011F600DDCF3CF03BC0D9FF3CC0DAFF3A50DF12EE
:101206001AEF09F03850396E3A6A3A50000AD8B4E3
:101216000FEF09F0AEEF08F03950000AD8B4B2EF7C
:1012260008F0010AD8B4DDEF08F0AEEF08F03E5042
:1012360012004850D8A422EF09F024EF09F028EF55
:1012460009F0000E4C6E94EF09F048C03FF056ECE2
:101256000BF04C6E48283F6E56EC0BF04C6E000EB1
:101266004B6E000E4A6E48504A24020F3F6E56ECF3
:101276000BF04A4A4B2A4BBE4AEF09F04B5009E1A4
:10128600080E4A5CD8A04AEF09F04CEF09F036EF99
:1012960009F0340E496EF20EE82EFED7492EFCD721
:1012A60048C041F0380E426EA5EC0AF00D0E496EAC
:1012B600FC0EE82EFED7492EFCD748C041F0380E6A
:1012C600426EA5EC0AF0640EE82EFED748C041F047
:1012D600380E426EA5EC0AF048C041F0010E426E8F
:1012E600A5EC0AF048C041F0020E426EA5EC0AF0E9
:1012F60048C041F0060E426EA5EC0AF048C041F027
:101306000C0E426EA5EC0AF048C041F0380E426E53
:10131600A5EC0AF048C041F0800E426EA5EC0AF03A
:101326004C6E4C5012004950D8A49CEF09F09EEF29
:1013360009F0A2EF09F0000E4D6E0EEF0AF049C05B
:101346003FF056EC0BF04D6E49283F6E56EC0BF015
:101356004D6E000E4C6E000E4B6E49504B24020F24
:101366003F6E56EC0BF04B4A4C2A4CBEC4EF09F0CC
:101376004C5009E1040E4B5CD8A0C4EF09F0C6EF4F
:1013860009F0B0EF09F0340E4A6EF20EE82EFED7E1
:101396004A2EFCD749C046F0380E476E85EC0BF056
:1013A6000D0E4A6EFC0EE82EFED74A2EFCD749C01B
:1013B60046F0380E476E85EC0BF0640EE82EFED72D
:1013C60049C046F0380E476E85EC0BF049C046F032
:1013D600010E476E85EC0BF049C046F0020E476ED3
:1013E60085EC0BF049C046F0060E476E85EC0BF017
:1013F60049C046F00C0E476E85EC0BF049C046F02E
:10140600280E476E85EC0BF049C046F0800E476EFD
:1014160085EC0BF04D6E4D5012004A064850D8A48C
:1014260017EF0AF019EF0AF04EEF0AF0000E4B6EB6
:1014360061EF0AF048C041F04A50800F426EA5ECB9
:101446000AF04B6E61EF0AF048C041F04A50C00FF7
:10145600426EA5EC0AF04B6E61EF0AF048C041F00F
:101466004A50940F426EA5EC0AF04B6E61EF0AF0FB
:1014760048C041F04A50D40F426EA5EC0AF04B6EBC
:1014860061EF0AF048C041F0020E426EA5EC0AF088
:101496004B6E61EF0AF04950010AD8B41DEF0AF00D
:1014A600030AD8B427EF0AF0010AD8B431EF0AF0DC
:1014B600070AD8B43BEF0AF045EF0AF04B5012008A
:1014C6004150D8A469EF0AF06BEF0AF06FEF0AF00B
:1014D600000E456EA3EF0AF041C037F0010E386EDC
:1014E60094EC08F0000E476E000E466E41504624FE
:1014F600020F376E46C043F042C044F0432A86EFDF
:101506000AF0D8904432432E84EF0AF04450010B7F
:10151600386E94EC08F0464A472A47BE9CEF0AF01C
:10152600475009E1080E465CD8A09CEF0AF09EEFF2
:101536000AF079EF0AF041C03FF0F3EC0BF0456E8C
:10154600455012004150D8A4ABEF0AF0ADEF0AF0B7
:10155600B1EF0AF0000E456EE5EF0AF041C037F034
:10156600000E386E94EC08F0000E476E000E466EC4
:1015760041504624020F376E46C043F042C044F045
:10158600432AC8EF0AF0D8904432432EC6EF0AF039
:101596004450010B386E94EC08F0464A472A47BE81
:1015A600DEEF0AF0475009E1080E465CD8A0DEEFF0
:1015B6000AF0E0EF0AF0BBEF0AF041C03FF0F3ECAF
:1015C6000BF0456E455012003F50D8A4EDEF0AF0DF
:1015D600EFEF0AF0F3EF0AF0000E436E1DEF0BF08B
:1015E600000E456E000E446E3F504424020F376EC7
:1015F60044C041F040C042F0412A04EF0BF0D890BD
:101606004232412E02EF0BF04250010B386E94EC41
:1016160008F0436E444A452A45BE1BEF0BF0455081
:1016260009E1040E445CD8A01BEF0BF01DEF0BF094
:10163600F7EF0AF0435012005150D8A425EF0BF0F3
:1016460027EF0BF02BEF0BF0000E566E54EF0BF05E
:1016560051C041F05550080DF350400F426EA5ECB5
:101666000AF0000E576E51C041F054505724D96EFF
:10167600DA6ADF50426E63EC0AF0572A070E5764A7
:1016860047EF0BF049EF0BF036EF0BF051C04CF083
:1016960052C04DF053C04EF055C04FF0D5EC0BF094
:1016A600566E565012003F50D8B45CEF0BF05EEF0A
:1016B6000BF06EEF0BF03F50D96EDA6ADF30E8328E
:1016C600E832070B406E070E40646CEF0BF06EEFCE
:1016D6000BF072EF0BF0000E416E83EF0BF03FC084
:1016E60037F00BEC08F0416E3FC037F03F50D96E33
:1016F600DA6A000EDFBE010E386E94EC08F0416E19
:10170600415012004650D8A48BEF0BF08DEF0BF032
:1017160091EF0BF0000E486EB1EF0BF046C037F0BC
:10172600000E386E94EC08F0486E46C03FF047381D
:101736000F0B406EE7EC0AF0486E46C03FF0B3EC84
:101746000BF0486E46C03FF047C040F0E7EC0AF0A9
:10175600486E46C03FF0B3EC0BF0486E485012009E
:101766003F50D8A4B9EF0BF0BBEF0BF0BFEF0BF077
:10177600000E416ED3EF0BF03F28376E010E386E28
:1017860094EC08F0030E406E980EE82EFED7402E1D
:10179600FCD73F28376E000E386E94EC08F0416E89
:1017A600415012004C50D8A4DBEF0BF0DDEF0BF0EC
:1017B600E1EF0BF0000E506EF1EF0BF04CC048F06D
:1017C6004DC049F04EC04AF010EC0AF0506E4CC0C5
:1017D60041F04FC042F063EC0AF0506E50501200D8
:1017E6003F50D8A4F9EF0BF0FBEF0BF0FFEF0BF037
:1017F600000E406E0DEF0CF03F28376E010E386E6E
:1018060094EC08F000D03F28376E000E386E94EC4A
:1018160008F0406E40501200800F810F820F830F38
:10182600840F890F8A0F8B0F8C0F8D0F920F930FDA
:10183600940F950F960F0A02030B131B232B333BB2
:10184600001B15110A0400001A12222A323A1E0E33
:10185600F66E180EF76E000EF86E00EE01F010EE42
:1018660036F00900F5CFEEFFE550E150FAE100EE63
:1018760058F0100EEE6AE806FDE1000EF86E000163
:1018860045EF0CF058EC0CF01F0E516E010E526E27
:10189600010E536E290E546E010E556E1FEC0BF0A1
:1018A600686E54EF0CF000EF00F0310E496E96ECC6
:1018B60009F0686E1F0E486E1CEC09F0686E120087
:020000040030CA
:0E000000FF021F1EFF8181FF0FC00FE00F40A7
:00000001FF
