:0400000043EF00F0DA
:060008006A8283ED0BF09B
:100018006A80D8CF4AF0E8CF4BF0E0CF4CF0FACF67
:100028004DF0FBCF4EF0D9CF4FF0DACF50F0F3CFF1
:1000380051F0F4CF52F0F0A624EF00F026EF00F0D4
:100048002FEF00F0F0A02BEF00F02DEF00F02FEFD6
:1000580000F0EFEC0CF052C0F4FF51C0F3FF50C0B9
:10006800DAFF4FC0D9FF4EC0FBFF4DC0FAFF4CC0AE
:10007800E0FF4BC0E8FF4AC0D8FF6A901000BAEF13
:020088000CF07A
:10100000003738392F3435362A3132332D23303DED
:051010002B2569000022
:10101600010E0001836F8051D8A414EF08F016EF7B
:1010260008F07AEF08F0000E836F98EF08F0F19C55
:1010360098EF08F0F18C98EF08F08051D96EDA6AD3
:10104600040ED926DF50816F826B8251000AD8B414
:101056002FEF08F098EF08F08151000AD8B41AEF84
:1010660008F0010AD8B41DEF08F098EF08F0F19ADD
:1010760098EF08F0F18A98EF08F08051D96EDA6A95
:10108600040ED926DF50816F826B8251000AD8B4D4
:101096004FEF08F098EF08F08151000AD8B43AEF04
:1010A60008F0010AD8B43DEF08F098EF08F0F1987F
:1010B60098EF08F0F18898EF08F08051D96EDA6A57
:1010C600040ED926DF50816F826B8251000AD8B494
:1010D6006FEF08F098EF08F08151000AD8B45AEF84
:1010E60008F0010AD8B45DEF08F098EF08F08051D7
:1010F600D96EDA6A030ED926DF50816F826B825170
:10110600000AD8B489EF08F016EF08F08151000AFA
:10111600D8B420EF08F0010AD8B440EF08F0030A6B
:10112600D8B460EF08F016EF08F083511200010EF4
:101136000001866F8051D8B4A3EF08F0A5EF08F040
:10114600B5EF08F08051D96EDA6ADF30E832E8325E
:10115600070B816F070E8165B3EF08F0B5EF08F056
:101166000EEF09F0000E866F24EF09F08051D96E5C
:10117600DA6ADF30E832E832070B816F010E826FE0
:10118600812BC8EF08F0D8908237812FC6EF08F080
:1011960000018251FF0A836F8051D96EDA6ADF50EF
:1011A600070B020DF350150FD96EDA6ADECF84F005
:1011B600DDCF85F084C0D9FF85C0DAFF8351DF1605
:1011C60024EF09F08051D96EDA6ADF30E832E8326E
:1011D600070B816F010E826F812BF4EF08F0D89018
:1011E6008237812FF2EF08F000018051D96EDA6A5A
:1011F600DF50070B020DF350150FD96EDA6ADECFFA
:1012060083F0DDCF84F083C0D9FF84C0DAFF82513A
:10121600DF1224EF09F08051D96EDA6ADFBC16EFCF
:1012260009F019EF09F0010E1AEF09F0000E000A95
:10123600D8B4B9EF08F0010AD8B4E5EF08F0B5EF75
:1012460008F086511200010E0001876F8051D8B454
:101256002FEF09F031EF09F041EF09F08051D96E17
:10126600DA6ADF30E832E832070B826F070E8265F2
:101276003FEF09F041EF09F09AEF09F0000E876F92
:10128600AFEF09F08051D96EDA6ADF30E832E83222
:10129600070B826F010E836F822B54EF09F0D890F3
:1012A6008337822F52EF09F000018351FF0A846FC2
:1012B6008051D96EDA6ADF50070B020DF3500B0F1F
:1012C600D96EDA6ADECF85F0DDCF86F085C0D9FF2C
:1012D60086C0DAFF8451DF16AFEF09F08051D96E70
:1012E600DA6ADF30E832E832070B826F010E836F6D
:1012F600822B80EF09F0D8908337822F7EEF09F09A
:1013060000018051D96EDA6ADF50070B020DF350E7
:101316000B0FD96EDA6ADECF84F0DDCF85F084C09C
:10132600D9FF85C0DAFF8351DF12AFEF09F0815193
:10133600826F836B8351000AD8B4A4EF09F041EFA2
:1013460009F08251000AD8B445EF09F0010AD8B471
:1013560071EF09F041EF09F087511200010E00010B
:10136600836F8051D8A4BAEF09F0BCEF09F00DEFF6
:101376000AF0000E836F2BEF0AF0D08EF28EF28801
:101386002BEF0AF0D08EF086CFEF09F0F28C2BEF20
:101396000AF0F28E2BEF0AF08051D96EDA6A050E4A
:1013A600D926DF50816F826B8251000AD8B4DEEFF6
:1013B60009F02BEF0AF08151000AD8B4C9EF09F001
:1013C600010AD8B4CCEF09F02BEF0AF0D08EF088E2
:1013D600F3EF09F0F28C2BEF0AF0F28E2BEF0AF006
:1013E6008051D96EDA6A050ED926DF50816F826B7D
:1013F6008251000AD8B402EF0AF02BEF0AF08151AD
:10140600000AD8B4EDEF09F0010AD8B4F0EF09F0FC
:101416002BEF0AF08051D96EDA6A030ED926DF5017
:10142600816F826B8251000AD8B41CEF0AF0BCEFC0
:1014360009F08151000AD8B4C0EF09F0010AD8B406
:10144600C5EF09F0030AD8B4E9EF09F0BCEF09F0DB
:1014560083511200010E0001836F8051D8B436EF1C
:101466000AF038EF0AF03FEF0AF0F2BE3DEF0AF05D
:101476003FEF0AF083EF0AF0000E836FA1EF0AF048
:10148600F09CA1EF0AF0F08CA1EF0AF08051D96E22
:10149600DA6A050ED926DF50816F826B8251000A07
:1014A600D8B458EF0AF0A1EF0AF08151000AD8B477
:1014B60043EF0AF0010AD8B446EF0AF0A1EF0AF0AA
:1014C600F09EA1EF0AF0F08EA1EF0AF08051D96EDE
:1014D600DA6A040ED926DF50816F826B8251000AC8
:1014E600D8B478EF0AF0A1EF0AF08151000AD8B417
:1014F60063EF0AF0010AD8B466EF0AF0A1EF0AF02A
:101506008051D96EDA6A030ED926DF50816F826B5D
:101516008251000AD8B492EF0AF03FEF0AF08151E7
:10152600000AD8B4A1EF0AF0010AD8B449EF0AF0CC
:10153600030AD8B469EF0AF03FEF0AF083511200AC
:1015460000018351D8A4AAEF0AF0ACEF0AF0D7EF56
:101556000AF0000E866FF5EF0AF08351D96EDA6A4B
:10156600DECF80F0DDCF81F076EC0DF00001866FE6
:10157600F5EF0AF08351D96EDA6ADECF80F0DDCF5F
:1015860081F060EC0DF00001866FF5EF0AF08351F3
:10159600D96EDA6ADECF80F0DDCF81F04AEC0DF04D
:1015A6000001866FF5EF0AF08351D96EDA6A030EF1
:1015B600D926DF50846F856B8551000AD8B4E6EFD3
:1015C6000AF0ACEF0AF08451000AD8B4B0EF0AF082
:1015D600010AD8B4BDEF0AF0030AD8B4CAEF0AF07C
:1015E600ACEF0AF086511200010E476E4250D8B495
:1015F600FFEF0AF001EF0BF011EF0BF04250D96E3E
:10160600DA6ADF30E832E832070B436E070E4364CE
:101616000FEF0BF011EF0BF015EF0BF0000E476E0E
:101626003BEF0BF04250D96EDA6ADF30E832E8322F
:10163600070B436E010E446E432A24EF0BF0D8903D
:101646004436432E22EF0BF04250D96EDA6ADF5051
:10165600070B020DF350010FD96EDA6ADECF45F0A3
:10166600DDCF46F045C0D9FF46C0DAFF4450DF1A49
:1016760047501200010E396E3450D8B445EF0BF0C6
:1016860047EF0BF057EF0BF03450D96EDA6ADF30C4
:10169600E832E832070B356E070E356455EF0BF06E
:1016A60057EF0BF05BEF0BF0000E396E81EF0BF08E
:1016B6003450D96EDA6ADF30E832E832070B356E1D
:1016C600010E366E352A6AEF0BF0D8903636352E77
:1016D60068EF0BF03450D96EDA6ADF50070B020D53
:1016E600F350010FD96EDA6ADECF37F0DDCF38F06E
:1016F60037C0D9FF38C0DAFF3650DF1A395012002A
:101706000600FACF3CF0FBCF3DF0D9CF3EF0DACF62
:101716003FF0F3CF40F0F4CF41F0F2A895EF0BF095
:1017260097EF0BF0A0EF0BF0F2A29CEF0BF09EEF01
:101736000BF0A0EF0BF01DEC0DF0F0A8A5EF0BF0F1
:10174600A7EF0BF0B0EF0BF0F0A2ACEF0BF0AEEFA3
:101756000BF0B0EF0BF006EC0DF041C0F4FF40C00B
:10176600F3FF3FC0DAFF3EC0D9FF3DC0FBFF3CC0E0
:10177600FAFF6A921100010E0001836F8051D8A40E
:10178600C7EF0BF0C9EF0BF0D6EF0BF0000E836F2F
:10179600F4EF0BF0F298F4EF0BF0F096F4EF0BF099
:1017A600F098F4EF0BF08051D96EDA6A030ED92661
:1017B600DF50816F826B8251000AD8B4E5EF0BF0DF
:1017C600C9EF0BF08151000AD8B4CDEF0BF0010A36
:1017D600D8B4D0EF0BF0030AD8B4D3EF0BF0C9EFAF
:1017E6000BF083511200010E0001836F8051D8A4C3
:1017F600FFEF0BF001EF0CF00EEF0CF0000E836F15
:101806002CEF0CF0F2922CEF0CF0F0902CEF0CF089
:10181600F0922CEF0CF08051D96EDA6A030ED926BD
:10182600DF50816F826B8251000AD8B41DEF0CF035
:1018360001EF0CF08151000AD8B405EF0CF0010A53
:10184600D8B408EF0CF0030AD8B40BEF0CF001EF94
:101856000CF08351120000018951D8A435EF0CF029
:1018660037EF0CF03BEF0CF0000E8A6F61EF0CF0D7
:1018760089C080F0BEEC0BF000018A6F89C080F051
:10188600F6EC0BF000018A6F89C080F00BEC08F0D3
:1018960000018A6F89C080F02DEC0AF000018A6F82
:1018A60089C087F034EC0DF089C083F0A3EC0AF010
:1018B60089C080F0B1EC09F000018A6F8A511200EC
:1018C60000018851D8B46AEF0CF06CEF0CF07CEF95
:1018D6000CF08851D96EDA6ADF30E832E832070B4D
:1018E600896F070E89657AEF0CF07CEF0CF080EFBC
:1018F6000CF0000E8A6F93EF0CF088C080F09AEC23
:1019060008F000018A6F88C080F08851D96EDA6AC3
:10191600000EDFBE010E816F26EC09F000018A6F12
:101926008A5112002B0E0001896F2EEC0CF0696EA5
:10193600250E0001896F2EEC0CF0696E1F0E00015A
:10194600896F2EEC0CF0696E330E0001886F63EC24
:101956000CF0696E320E0001886F63EC0CF0696E54
:10196600310E0001886F63EC0CF0696E1200AA0E4E
:10197600F66E190EF76E000EF86E00EE01F010EE20
:1019860033F00900F5CFEEFFE550E150FAE100EE45
:1019960053F0160EEE6AE806FDE16A906A920001BF
:1019A60001EF0EF0800F810F820F830F840F890FD6
:1019B6008A0F8B0F8C0F8D0F920F930F940F950F2D
:1019C600960F701B51020101181B49010100441BAF
:0719D60041000100120A02AA
:1019DE00F09055505610D8B4F7EF0CF0F9EF0CF01C
:1019EE0005EF0DF002D805EF0DF00500FA6E55501B
:1019FE00FD6E5650FE6EFF6AFA5012001200F09203
:101A0E0053505410D8B40EEF0DF010EF0DF01CEF34
:101A1E000DF002D81CEF0DF00500FA6E5350FD6E5E
:101A2E005450FE6EFF6AFA5012001200F292575096
:101A3E005810D8B425EF0DF027EF0DF033EF0DF061
:101A4E0002D833EF0DF00500FA6E5750FD6E585068
:101A5E00FE6EFF6AFA501200120000018751D8A4E0
:101A6E003BEF0DF03DEF0DF041EF0DF0000E886FE6
:101A7E0048EF0DF08751020F806F9AEC08F00001CD
:101A8E00886F88511200010E0001826F8051811102
:101A9E00D8A454EF0DF056EF0DF05AEF0DF0000EE6
:101AAE00826F5EEF0DF080C053F081C054F0825112
:101ABE001200010E0001826F80518111D8A46AEFCD
:101ACE000DF06CEF0DF070EF0DF0000E826F74EFF5
:101ADE000DF080C055F081C056F082511200010EFB
:101AEE000001826F80518111D8A480EF0DF082EF3A
:101AFE000DF086EF0DF0000E826F8AEF0DF080C0B4
:101B0E0057F081C058F0825112006AA291EF0DF089
:101B1E00CEEF0DF0320E426EF7EC0AF0696E030E48
:101B2E00496E8A0E486E560EE82EFED7482EFCD70A
:101B3E00492EFAD712006AA2A7EF0DF0DFEF0DF0D3
:101B4E00330E426EF7EC0AF0696E030E496E8A0E82
:101B5E00486E560EE82EFED7482EFCD7492EFAD7E1
:101B6E0012006AA2BDEF0DF0F0EF0DF0310E426ED5
:101B7E00F7EC0AF0696E030E496E8A0E486E560E29
:101B8E00E82EFED7482EFCD7492EFAD71200320E79
:101B9E00346E3DEC0BF0696E030E3B6E8A0E3A6EA0
:101BAE00560EE82EFED73A2EFCD73B2EFAD7120051
:101BBE00330E346E3DEC0BF0696E030E3B6E8A0EE7
:101BCE003A6E560EE82EFED73A2EFCD73B2EFAD79B
:101BDE001200310E346E3DEC0BF0696E030E3B6E4F
:101BEE008A0E3A6E560EE82EFED73A2EFCD73B2EB4
:101BFE00FAD7120095EC0CF003EF0EF043EF00F065
:020000040030CA
:0E000000FF021F1EFF8181FF0FC00FE00F40A7
:00000001FF
