:0400000007EF00F016
:0A0008006D820BED08F076EF0AF0B0
:10100000003738392F3435362A3132332D23303DED
:051010002B2569000022
:101016000600FACF63F0FBCF64F0D9CF65F0DACFE4
:1010260066F0F3CF67F0F4CF68F09DAC1DEF08F0E3
:101036001FEF08F028EF08F09EAC24EF08F026EF2B
:1010460008F028EF08F04EEC0CF0F2A62DEF08F0B1
:101056002FEF08F048EF08F0F2A034EF08F036EF73
:1010660008F048EF08F081AA3BEF08F03DEF08F0E2
:101076003FEF08F044EC0CF081BA44EF08F046EF7D
:1010860008F048EF08F044EC0CF0F2A64DEF08F03B
:101096004FEF08F068EF08F0F2A054EF08F056EFB3
:1010A60008F068EF08F081A85BEF08F05DEF08F044
:1010B6005FEF08F046EC0CF081B864EF08F066EFDD
:1010C60008F068EF08F046EC0CF0F2A66DEF08F0B9
:1010D6006FEF08F088EF08F0F2A074EF08F076EFF3
:1010E60008F088EF08F081AC7BEF08F07DEF08F0A0
:1010F6007FEF08F042EC0CF081BC84EF08F086EF3D
:1011060008F088EF08F042EC0CF0F2A68DEF08F03C
:101116008FEF08F0A8EF08F0F2A094EF08F096EF32
:1011260008F0A8EF08F081AE9BEF08F09DEF08F0FD
:101136009FEF08F040EC0CF081BEA4EF08F0A6EF9C
:1011460008F0A8EF08F040EC0CF0F2A8ADEF08F0BC
:10115600AFEF08F0B8EF08F0F2A2B4EF08F0B6EF80
:1011660008F0B8EF08F04CEC0CF0F0A6BDEF08F074
:10117600BFEF08F0C8EF08F0F0A0C4EF08F0C6EF24
:1011860008F0C8EF08F04AEC0CF0F0A8CDEF08F034
:10119600CFEF08F0D8EF08F0F0A2D4EF08F0D6EFC2
:1011A60008F0D8EF08F048EC0CF0F2AADDEF08F0F2
:1011B600DFEF08F0E8EF08F0F2A4E4EF08F0E6EF5E
:1011C60008F0E8EF08F0F1EC0BF068C0F4FF67C038
:1011D600F3FF66C0DAFF65C0D9FF64C0FBFF63C0DA
:1011E600FAFF6D921100010E0001C36FBD51D8B414
:1011F600FFEF08F001EF09F00EEF09F0BD51D96ECF
:10120600DA6A010ED926070EDF640CEF09F00EEF3D
:1012160009F063EF09F0000EC36F7DEF09F0BD51D1
:10122600D96EDA6A010ED926DF50BE6F010EBF6F86
:10123600BE2B20EF09F0D890BF37BE2F1EEF09F066
:101246000001BF51FF0AC06FBD51D96EDA6ADF5087
:10125600020DF350940FD96EDA6ADECFC1F0DDCFFE
:10126600C2F0C1C0D9FFC2C0DAFFC051DF167DEFA0
:1012760009F0BD51D96EDA6A010ED926DF50BE6F6C
:10128600010EBF6FBE2B4AEF09F0D890BF37BE2FB5
:1012960048EF09F00001BD51D96EDA6ADF50020D40
:1012A600F350940FD96EDA6ADECFC0F0DDCFC1F00D
:1012B600C0C0D9FFC1C0DAFFBF51DF127DEF09F010
:1012C600BD51D96EDA6A020ED926DF50BE6FBF6BEA
:1012D600BF51000AD8B472EF09F00EEF09F0BE5103
:1012E600000AD8B412EF09F0010AD8B43CEF09F0AD
:1012F6000EEF09F0C3511200010E0001C46FBD517B
:10130600D8B488EF09F08AEF09F097EF09F0BD51DC
:10131600D96EDA6A010ED926070EDF6495EF09F059
:1013260097EF09F0ECEF09F0000EC46F01EF0AF039
:10133600BD51D96EDA6A010ED926DF50BF6F010E94
:10134600C06FBF2BA9EF09F0D890C037BF2FA7EF0A
:1013560009F00001C051FF0AC16FBD51D96EDA6AAA
:10136600DF50020DF3508A0FD96EDA6ADECFC2F073
:10137600DDCFC3F0C2C0D9FFC3C0DAFFC151DF164B
:1013860001EF0AF0BD51D96EDA6A010ED926DF5097
:10139600BF6F010EC06FBF2BD3EF09F0D890C037D7
:1013A600BF2FD1EF09F00001BD51D96EDA6ADF50C7
:1013B600020DF3508A0FD96EDA6ADECFC1F0DDCFA7
:1013C600C2F0C1C0D9FFC2C0DAFFC051DF1201EFBF
:1013D6000AF0BE51BF6FC06BC051000AD8B4F6EF19
:1013E60009F097EF09F0BF51000AD8B49BEF09F056
:1013F600010AD8B4C5EF09F097EF09F0C4511200FD
:10140600010E5C6E5750D8B40BEF0AF00DEF0AF0E0
:101416001AEF0AF05750D96EDA6A010ED926070E6E
:10142600DF6418EF0AF01AEF0AF01EEF0AF0000E5A
:101436005C6E42EF0AF05750D96EDA6A010ED92671
:10144600DF50586E010E596E582A2CEF0AF0D890CC
:101456005936582E2AEF0AF05750D96EDA6ADF50FD
:10146600020DF350800FD96EDA6ADECF5AF0DDCF67
:101476005BF05AC0D9FF5BC0DAFF5950DF1A5C50E7
:1014860012000001C851D8A44BEF0AF04DEF0AF044
:1014960051EF0AF0000EC96F74EF0AF01DC0CAF0D2
:1014A6001EC0CBF01FC0CCF020C0CDF0C851D96E05
:1014B600DA6ADF50CA6FC851D96EDA6A010ED926C8
:1014C600DF50CB6F000ECC6FC851D96EDA6A020EB0
:1014D600D926DF50CD6FCA0EC56F06EC0BF00001A2
:1014E600C96FC9511200180EF66E180EF76E000E6F
:1014F600F86E00EE80F010EE28F00900F5CFEEFF52
:10150600E550E150FAE1A00EF66E180EF76E000EE9
:10151600F86E0900F5CF69F00900F5CF6AF0090009
:10152600F5CF6BF000EEA8F0150EEE6AE806FDE1C9
:1015360000EE01F0560EEE6AE806FDE16D906D9242
:10154600000135EF0CF0010E0001C46FC351D8A4A1
:10155600AFEF0AF0B1EF0AF0B5EF0AF0000EC46F74
:10156600D3EF0AF0D59EC3C0BDF035EC0BF0C3C077
:10157600BDF08BEC0BF0C3C0C0F064EC0BF0C3C045
:10158600BDF03BEC0CF00001C351D96EDA6ADECF38
:1015960045F0DDCF46F0C3C0BDF0D1EC0BF0D58EE3
:1015A6000001C45112005D50D8A4DCEF0AF0DEEF52
:1015B6000AF0E2EF0AF0000E5E6E04EF0BF011C0C7
:1015C6005FF012C060F013C061F014C062F05D50AD
:1015D600D96EDA6ADF505F6E5D50D96EDA6A010E37
:1015E600D926DF50606E000E616E5D50D96EDA6AE4
:1015F600020ED926DF50626E5F0E576E03EC0AF0BC
:101606005E6E5E5012000001C551D8B40DEF0BF0AE
:101616000FEF0BF01CEF0BF0C551D96EDA6A010E15
:10162600D926070EDF641AEF0BF01CEF0BF020EF44
:101636000BF0000EC76F33EF0BF0C5C0BDF0F6EC34
:1016460008F00001C76FC5C0BDF0C551D96EDA6A92
:10165600030ED926DF50BE6F7FEC09F00001C76F7D
:10166600C75112003CEF0BF0D596D586D58657EFBD
:101676000BF00001BD51D96EDA6A040ED926DF508F
:10168600BE6FBF6BBF51000AD8B44CEF0BF039EFF9
:101696000BF0BE51000AD8B437EF0BF0010AD8B4EC
:1016A60038EF0BF039EF0BF0BD51D96EDA6A030E45
:1016B600D926DF50BE6FD550BE19F80BBE19D56EB0
:1016C60012006FEF0BF0D58AC0C0BDF0AEEC0BF088
:1016D600D59AD59A8AEF0BF00001C051D96EDA6A15
:1016E600060ED926DF50C16FC26BC251000AD8B4AC
:1016F6007FEF0BF06CEF0BF0C151000AD8B466EF28
:101706000BF0010AD8B46BEF0BF06CEF0BF0120084
:1017160092EF0BF0D58CD59CD59CADEF0BF000016C
:10172600BD51D96EDA6A070ED926DF50BE6FBF6B80
:10173600BF51000AD8B4A2EF0BF08FEF0BF0BE51E9
:10174600000AD8B48DEF0BF0010AD8B48EEF0BF077
:101756008FEF0BF01200B5EF0BF0D588D598D59822
:10176600D0EF0BF00001BD51D96EDA6A050ED9260D
:10177600DF50BE6FBF6BBF51000AD8B4C5EF0BF088
:10178600B2EF0BF0BE51000AD8B4B0EF0BF0010A6D
:10179600D8B4B1EF0BF0B2EF0BF012000001BD515F
:1017A600D96EDA6A080ED926DECFBEF0DDCFBFF0DD
:1017B600BFC0BEF0BF6BBE51D76EBD51D96EDA6ADF
:1017C600080ED926DF50D66EBD51D96EDA6A080EDC
:1017D600D926DECF43F0DDCF44F01200F294445018
:1017E600D76E43C0D6FF45504610D8B4FDEF0BF078
:1017F600FFEF0BF00BEF0CF002D80BEF0CF005002F
:10180600FA6E4550FD6E4650FE6EFF6AFA501200A3
:101816001200800F810F820F830F840F890F8A0FAA
:101826008B0F8C0F8D0F920F930F940F950F960FB2
:101836005A18000200000101DC0B9E0E0001C36F66
:10184600A6EC0AF06C6E690E0001C86F44EC0AF053
:101856006C6E1200414A422A690E5D6ED6EC0AF0A1
:101866006C6E120020EC0CF037EF0CF007EF00F076
:10187600F28AF294F28CF28E1200F2901200F2903A
:101886001200F2901200F2901200F0921200F09004
:0D1896001200F29212009E9C12000200004F
:020000040030CA
:0E000000FF021F1EFF8181FF0FC00FE00F40A7
:00000001FF
