:0400000007EF00F016
:0A00080054821AED0BF06FEF0BF0BD
:10100000003738392F3435362A3132332D23303DED
:051010002B2569000022
:10101600010E356E3250D8A413EF08F015EF08F024
:1010260079EF08F0000E356E97EF08F0F19C97EF18
:1010360008F0F18C97EF08F03250D96EDA6A040E98
:10104600D926DF50336E346A3450000AD8B42EEFF6
:1010560008F097EF08F03350000AD8B419EF08F0FB
:10106600010AD8B41CEF08F097EF08F0F19A97EF51
:1010760008F0F18A97EF08F03250D96EDA6A040E5A
:10108600D926DF50336E346A3450000AD8B44EEF96
:1010960008F097EF08F03350000AD8B439EF08F09B
:1010A600010AD8B43CEF08F097EF08F0F19897EFF3
:1010B60008F0F18897EF08F03250D96EDA6A040E1C
:1010C600D926DF50336E346A3450000AD8B46EEF36
:1010D60008F097EF08F03350000AD8B459EF08F03B
:1010E600010AD8B45CEF08F097EF08F03250D96ED9
:1010F600DA6A030ED926DF50336E346A3450000A9A
:10110600D8B488EF08F015EF08F03350000AD8B4C9
:101116001FEF08F0010AD8B43FEF08F0030AD8B46D
:101126005FEF08F015EF08F035501200010E386E2B
:101136003250D8B4A1EF08F0A3EF08F0B3EF08F0EF
:101146003250D96EDA6ADF30E832E832070B336E96
:10115600070E3364B1EF08F0B3EF08F00AEF09F0B9
:10116600000E386E20EF09F03250D96EDA6ADF30A1
:10117600E832E832070B336E010E346E332AC6EFBF
:1011860008F0D8903436332EC4EF08F03450FF0AF6
:10119600356E3250D96EDA6ADF50070B020DF35006
:1011A600150FD96EDA6ADECF36F0DDCF37F036C0EE
:1011B600D9FF37C0DAFF3550DF1620EF09F032507D
:1011C600D96EDA6ADF30E832E832070B336E010E89
:1011D600346E332AF1EF08F0D8903436332EEFEF21
:1011E60008F03250D96EDA6ADF50070B020DF35061
:1011F600150FD96EDA6ADECF35F0DDCF36F035C0A1
:10120600D9FF36C0DAFF3450DF1220EF09F0325032
:10121600D96EDA6ADFBC12EF09F015EF09F0010E9C
:1012260016EF09F0000E000AD8B4B7EF08F0010A6D
:10123600D8B4E2EF08F0B3EF08F038501200010E10
:10124600396E3250D8B42AEF09F02CEF09F03CEF92
:1012560009F03250D96EDA6ADF30E832E832070B2D
:10126600346E070E34643AEF09F03CEF09F093EF61
:1012760009F0000E396EA8EF09F03250D96EDA6A1D
:10128600DF30E832E832070B346E010E356E342A51
:101296004FEF09F0D8903536342E4DEF09F0355022
:1012A600FF0A366E3250D96EDA6ADF50070B020D2E
:1012B600F3500B0FD96EDA6ADECF37F0DDCF38F098
:1012C60037C0D9FF38C0DAFF3650DF16A8EF09F06D
:1012D6003250D96EDA6ADF30E832E832070B346E04
:1012E600010E356E342A7AEF09F0D8903536342E51
:1012F60078EF09F03250D96EDA6ADF50070B020D2B
:10130600F3500B0FD96EDA6ADECF36F0DDCF37F049
:1013160036C0D9FF37C0DAFF3550DF12A8EF09F023
:101326003350346E356A3550000AD8B49DEF09F053
:101336003CEF09F03450000AD8B440EF09F0010A36
:10134600D8B46BEF09F03CEF09F039501200355074
:10135600D8A4B0EF09F0B2EF09F0DAEF09F0000E09
:10136600386EF8EF09F03550D96EDA6ADECF32F012
:10137600DDCF33F0CBEC0BF0386EF8EF09F03550DB
:10138600D96EDA6ADECF32F0DDCF33F0B6EC0BF091
:10139600386EF8EF09F03550D96EDA6ADECF32F0E2
:1013A600DDCF33F0A1EC0BF0386EF8EF09F03550D5
:1013B600D96EDA6A030ED926DF50366E376A375091
:1013C600000AD8B4E9EF09F0B2EF09F03650000A86
:1013D600D8B4B6EF09F0010AD8B4C2EF09F0030A8F
:1013E600D8B4CEEF09F0B2EF09F038501200010E72
:1013F6002B6E2650D8B402EF0AF004EF0AF014EF71
:101406000AF02650D96EDA6ADF30E832E832070B86
:10141600276E070E276412EF0AF014EF0AF018EF92
:101426000AF0000E2B6E3EEF0AF02650D96EDA6AED
:10143600DF30E832E832070B276E010E286E272AC6
:1014460027EF0AF0D8902836272E25EF0AF02650E7
:10145600D96EDA6ADF50070B020DF350010FD96E11
:10146600DA6ADECF29F0DDCF2AF029C0D9FF2AC0FB
:10147600DAFF2850DF1A2B501200010E356E32505B
:10148600D8A448EF0AF04AEF0AF05DEF0AF0000E22
:10149600356E7BEF0AF0F28CF28EF2887BEF0AF063
:1014A600F28CF28EF0867BEF0AF0F28CF28EF088E8
:1014B6007BEF0AF03250D96EDA6A030ED926DF5076
:1014C600336E346A3450000AD8B46CEF0AF04AEF2F
:1014D6000AF03350000AD8B44EEF0AF0010AD8B425
:1014E60053EF0AF0030AD8B458EF0AF04AEF0AF0AD
:1014F60035501200010E356E3250D8A485EF0AF031
:1015060087EF0AF094EF0AF0000E356EB2EF0AF09C
:10151600F298B2EF0AF0F096B2EF0AF0F098B2EF56
:101526000AF03250D96EDA6A030ED926DF50336ECE
:10153600346A3450000AD8B4A3EF0AF087EF0AF0F1
:101546003350000AD8B48BEF0AF0010AD8B48EEFF4
:101556000AF0030AD8B491EF0AF087EF0AF0355083
:101566001200010E356E3250D8A4BCEF0AF0BEEF61
:101576000AF0CBEF0AF0000E356EE9EF0AF0F292B0
:10158600E9EF0AF0F090E9EF0AF0F092E9EF0AF0DD
:101596003250D96EDA6A030ED926DF50336E346ABA
:1015A6003450000AD8B4DAEF0AF0BEEF0AF033502E
:1015B600000AD8B4C2EF0AF0010AD8B4C5EF0AF09F
:1015C600030AD8B4C8EF0AF0BEEF0AF0355012008D
:1015D6003A50D8B4F1EF0AF0F3EF0AF003EF0BF04C
:1015E6003A50D96EDA6ADF30E832E832070B3B6EE2
:1015F600070E3B6401EF0BF003EF0BF007EF0BF068
:10160600000E3C6E18EF0BF03AC032F099EC08F081
:101616003C6E3AC032F03A50D96EDA6A000EDFBE3E
:10162600010E336E22EC09F03C6E3C5012000600AF
:10163600FACF2CF0FBCF2DF0D9CF2EF0DACF2FF04A
:10164600F3CF30F0F4CF31F0F2A82CEF0BF02EEF01
:101656000BF037EF0BF0F2A233EF0BF035EF0BF098
:1016660037EF0BF08AEC0BF031C0F4FF30C0F3FF1C
:101676002FC0DAFF2EC0D9FF2DC0FBFF2CC0FAFF0A
:10168600549211003B50D8A44BEF0BF04DEF0BF0EA
:1016960051EF0BF0000E3C6E6DEF0BF03BC032F0DD
:1016A6007DEC0AF03C6E3BC032F0B4EC0AF03C6EC6
:1016B6003BC032F00BEC08F03C6E3BC039F0E0EC7E
:1016C6000BF03BC035F0AAEC09F03BC032F040EC21
:1016D6000AF03C6E3C501200E80EF66E170EF76EDE
:1016E600000EF86E00EE01F010EE25F00900F5CFC1
:1016F600EEFFE550E150FAE100EE3DF0160EEE6A1F
:10170600E806FDE154905492000112EF0CF0F292BB
:1017160041504210D8B492EF0BF094EF0BF0A0EFCB
:101726000BF002D8A0EF0BF00500FA6E4150FD6EEB
:101736004250FE6EFF6AFA5012001200010E346E1D
:1017460032503310D8A4AAEF0BF0ACEF0BF0B0EF89
:101756000BF0000E346EB4EF0BF032C03DF033C028
:101766003EF034501200010E346E32503310D8A4BD
:10177600BFEF0BF0C1EF0BF0C5EF0BF0000E346EB0
:10178600C9EF0BF032C03FF033C040F034501200C6
:10179600010E346E32503310D8A4D4EF0BF0D6EFCE
:1017A6000BF0DAEF0BF0000E346EDEEF0BF032C00A
:1017B60041F033C042F0345012003950D8A4E6EF5D
:1017C6000BF0E8EF0BF0ECEF0BF0000E3A6EF2EFD9
:1017D6000BF03950020F326E99EC08F03A6E3A501F
:1017E6001200800F810F820F830F840F890F8A0FDB
:1017F6008B0F8C0F8D0F920F930F940F950F960FE3
:07180600301841000100024F
:10180E001F0E3B6E45EC0BF0536E250E3A6EEBEC55
:10181E000AF0536E120007EC0CF014EF0CF007EF09
:0E182E0000F0250E266EFAEC09F0536E120043
:020000040030CA
:0E000000FF021F1EFF8181FF0FC00FE00F40A7
:00000001FF
