:0400000007EF00F016
:0A0008006D820BED08F0F9EF0AF02D
:10100000003738392F3435362A3132332D23303DED
:051010002B2569000022
:101016000600FACF62F0FBCF63F0D9CF64F0DACFE7
:1010260065F0F3CF66F0F4CF67F09DAC1DEF08F0E6
:101036001FEF08F028EF08F09EAC24EF08F026EF2B
:1010460008F028EF08F099EC0CF0F2A62DEF08F066
:101056002FEF08F048EF08F0F2A034EF08F036EF73
:1010660008F048EF08F081AA3BEF08F03DEF08F0E2
:101076003FEF08F08FEC0CF081BA44EF08F046EF32
:1010860008F048EF08F08FEC0CF0F2A64DEF08F0F0
:101096004FEF08F068EF08F0F2A054EF08F056EFB3
:1010A60008F068EF08F081A85BEF08F05DEF08F044
:1010B6005FEF08F091EC0CF081B864EF08F066EF92
:1010C60008F068EF08F091EC0CF0F2A66DEF08F06E
:1010D6006FEF08F088EF08F0F2A074EF08F076EFF3
:1010E60008F088EF08F081AC7BEF08F07DEF08F0A0
:1010F6007FEF08F08DEC0CF081BC84EF08F086EFF2
:1011060008F088EF08F08DEC0CF0F2A68DEF08F0F1
:101116008FEF08F0A8EF08F0F2A094EF08F096EF32
:1011260008F0A8EF08F081AE9BEF08F09DEF08F0FD
:101136009FEF08F08BEC0CF081BEA4EF08F0A6EF51
:1011460008F0A8EF08F08BEC0CF0F2A8ADEF08F071
:10115600AFEF08F0B8EF08F0F2A2B4EF08F0B6EF80
:1011660008F0B8EF08F097EC0CF0F0A6BDEF08F029
:10117600BFEF08F0C8EF08F0F0A0C4EF08F0C6EF24
:1011860008F0C8EF08F095EC0CF0F0A8CDEF08F0E9
:10119600CFEF08F0D8EF08F0F0A2D4EF08F0D6EFC2
:1011A60008F0D8EF08F093EC0CF0F2AADDEF08F0A7
:1011B600DFEF08F0E8EF08F0F2A4E4EF08F0E6EF5E
:1011C60008F0E8EF08F07AEC0CF09DA0EDEF08F0DF
:1011D600EFEF08F0F8EF08F09EA0F4EF08F0F6EF56
:1011E60008F0F8EF08F074EC0CF09DA2FDEF08F0A3
:1011F600FFEF08F008EF09F09EA204EF09F006EFF2
:1012060009F008EF09F085EC0CF0A0A20DEF09F04B
:101216000FEF09F018EF09F0A1A214EF09F016EF8D
:1012260009F018EF09F01DEC0CF09DA81DEF09F070
:101236001FEF09F028EF09F09EA824EF09F026EF2A
:1012460009F028EF09F089EC0CF09DAA2DEF09F0C2
:101256002FEF09F038EF09F09EAA34EF09F036EFC8
:1012660009F038EF09F09DEC0CF067C0F4FF66C09A
:10127600F3FF65C0DAFF64C0D9FF63C0FBFF62C03D
:10128600FAFF6D921100010E0001D56F6850D8B4B7
:101296004FEF09F051EF09F05EEF09F06850D96E93
:1012A600DA6A010ED926070EDF645CEF09F05EEFFD
:1012B60009F0B3EF09F0000ED56FCDEF09F06850D5
:1012C600D96EDA6A010ED926DF50D06F010ED16FC2
:1012D600D02B70EF09F0D890D137D02F6EEF09F0F0
:1012E6000001D151FF0AD26F6850D96EDA6ADF5019
:1012F600020DF350BD0FD96EDA6ADECFD3F0DDCF23
:10130600D4F0D3C0D9FFD4C0DAFFD251DF16CDEF67
:1013160009F06850D96EDA6A010ED926DF50D06F0F
:10132600010ED16FD02B9AEF09F0D890D137D02F7C
:1013360098EF09F06850D96EDA6ADF50020DF35063
:10134600BD0FD96EDA6ADECFD2F0DDCFD3F0D2C0D0
:10135600D9FFD3C0DAFF0001D151DF12CDEF09F07A
:101366006850D96EDA6A020ED926DF50D06FD16B7B
:10137600D151000AD8B4C2EF09F05EEF09F0D0519E
:10138600000AD8B462EF09F0010AD8B48CEF09F06C
:101396005EEF09F0D5511200010E686E0001D051C2
:1013A600D8B4D8EF09F0DAEF09F0E7EF09F0D05139
:1013B600D96EDA6A010ED926070EDF64E5EF09F069
:1013C600E7EF09F03CEF0AF0000E686E51EF0AF005
:1013D600D051D96EDA6A010ED926DF50D26F010ECE
:1013E600D36FD22BF9EF09F0D890D337D22FF7EF7E
:1013F60009F00001D351FF0AD46FD051D96EDA6AD1
:10140600DF50020DF350B30FD96EDA6ADECFD5F096
:10141600DDCFD6F0D5C0D9FFD6C0DAFFD451DF165E
:1014260051EF0AF0D051D96EDA6A010ED926DF5093
:10143600D26F010ED36FD22B23EF0AF0D890D33799
:10144600D22F21EF0AF00001D051D96EDA6ADF50AF
:10145600020DF350B30FD96EDA6ADECFD4F0DDCFCA
:10146600D5F0D4C0D9FFD5C0DAFFD351DF1251EF82
:101476000AF0D151D26FD36BD351000AD8B446EFDC
:101486000AF0E7EF09F0D251000AD8B4EBEF09F001
:10149600010AD8B415EF0AF0E7EF09F06850120018
:1014A600010E5B6E5650D8B45BEF0AF05DEF0AF0A2
:1014B6006AEF0AF05650D96EDA6A010ED926070E7F
:1014C600DF6468EF0AF06AEF0AF06EEF0AF0000ECA
:1014D6005B6E92EF0AF05650D96EDA6A010ED92683
:1014E600DF50576E010E586E572A7CEF0AF0D890DF
:1014F6005836572E7AEF0AF05650D96EDA6ADF5010
:10150600020DF350A90FD96EDA6ADECF59F0DDCF9E
:101516005AF059C0D9FF5AC0DAFF5850DF1A5B504B
:101526001200010E0001D36FD251D8A49DEF0AF02C
:101536009FEF0AF0A3EF0AF0000ED36FC5EF0AF093
:10154600B190D2C068F04CEC0CF0D2C068F0AFECB1
:101556000BF0D2C068F088EC0BF0D2C068F0D6EC85
:101566000BF0D2C068F0FDEC0BF0D2C068F080EC56
:101576000CF00001D251D96EDA6ADECF39F0DDCF38
:101586003AF0B180D35112000001DA51D8A4CEEF5F
:101596000AF0D0EF0AF0D4EF0AF0000EDB6FF7EF97
:1015A6000AF009C0DCF00AC0DDF00BC0DEF00CC0AA
:1015B600DFF0DA51D96EDA6ADF50DC6FDA51D96EB4
:1015C600DA6A010ED926DF50DD6F000EDE6FDA51C2
:1015D600D96EDA6A020ED926DF50DF6FDC0ED76FBE
:1015E60059EC0BF00001DB6FDB511200700EF66E4A
:1015F600180EF76E000EF86E00EEA9F010EE27F04A
:101606000900F5CFEEFFE550E150FAE1360EF66E31
:10161600190EF76E000EF86E0900F5CF69F0090095
:10162600F5CF6AF00900F5CF6BF000EE80F0290ED9
:10163600EE6AE806FDE100EE01F0550EEE6AE806F8
:10164600FDE16D906D92000168EF0CF05C50D8A43E
:101656002FEF0BF031EF0BF035EF0BF0000E5D6E58
:1016660057EF0BF0A1C05EF0A2C05FF0A3C060F020
:10167600A4C061F05C50D96EDA6ADF505E6E5C50D1
:10168600D96EDA6A010ED926DF505F6E000E606EE3
:101696005C50D96EDA6A020ED926DF50616E5E0E94
:1016A600566E53EC0AF05D6E5D5012000001D75184
:1016B600D8B460EF0BF062EF0BF06FEF0BF0D75181
:1016C600D96EDA6A010ED926070EDF646DEF0BF0CC
:1016D6006FEF0BF073EF0BF0000ED96F86EF0BF088
:1016E600D7C068F046EC09F00001D96FD7C0D0F03A
:1016F600D751D96EDA6A030ED926DF50D16FCFECF7
:1017060009F00001D96FD951120093EF0BF0B19E89
:10171600AEEF0BF0B18EAEEF0BF0B18EAEEF0BF07D
:101726006850D96EDA6A050ED926DF500001D06FEF
:10173600D16BD151000AD8B4A3EF0BF090EF0BF0A8
:10174600D051000AD8B48AEF0BF0010AD8B48DEF55
:101756000BF090EF0BF01200BAEF0BF0B182D5EF61
:101766000BF0B192D5EF0BF0B192D5EF0BF06850BC
:10177600D96EDA6A040ED926DF500001D06FD16B1C
:10178600D151000AD8B4CAEF0BF0B7EF0BF0D05125
:10179600000AD8B4B4EF0BF0010AD8B4B1EF0BF0DD
:1017A600B7EF0BF01200E1EF0BF0B194FCEF0BF08A
:1017B600B184FCEF0BF0B184FCEF0BF06850D96EEE
:1017C600DA6A060ED926DF500001D06FD16BD151EF
:1017D600000AD8B4F1EF0BF0DEEF0BF0D051000A9F
:1017E600D8B4D8EF0BF0010AD8B4DBEF0BF0DEEF7C
:1017F6000BF012006850D96EDA6A070ED926DECFD2
:10180600D0F0DDCFD1F0D1C0D0F00001D16BD051F6
:10181600B36E6850D96EDA6A070ED926DF50B26EFB
:101826006850D96EDA6A070ED926DECF37F0DDCFDB
:1018360038F01200A1923850B36E37C0B2FF39505B
:101846003A10D8B429EF0CF02BEF0CF037EF0CF070
:1018560002D837EF0CF00500FA6E3950FD6E3A509B
:10186600FE6EFF6AFA5012001200800F810F820F7F
:10187600830F840F890F8A0F8B0F8C0F8D0F920F9A
:10188600930F940F950F960FDC180003010101B01A
:011896003C15
:101898006850D96EDA6A030ED926DF500001D06F7E
:1018A800D03BB150D019CF0BD019B16E1200C70E72
:1018B8000001D26F94EC0AF06C6E690E0001DA6FC9
:1018C800C7EC0AF06C6E12005BEC0CF06AEF0CF0DF
:1018D80007EF00F0690E5C6E29EC0BF06C6E1200DD
:1018E8009E903E50CF6E3DC0CEFF1200F294425003
:1018F800D76E41C0D6FF1200A082A192F28CF28E60
:1019080012009E9055C0CCFF12009D981200F290D4
:101918001200F2901200F2901200F2901200F0926F
:101928001200F0901200F29212009E9C1200020027
:0119380000AE
:02193A00120099
:020000040030CA
:0E000000FF021F1EFF8181FF0FC00FE00F40A7
:00000001FF
