:0400000060EF0AF0B3
:10100000003738392F3435362A3132332D23303DED
:101010002B00010E2D6E2750D8B411EF08F013EFFE
:1010200008F023EF08F02750D96EDA6ADF30E83293
:10103000E832070B286E070E286421EF08F023EF33
:1010400008F07AEF08F0000E2D6E90EF08F02750B0
:10105000D96EDA6ADF30E832E832070B286E010E0B
:10106000296E282A36EF08F0D8902936282E34EF3A
:1010700008F02950FF0A2A6E2750D96EDA6ADF502D
:10108000070B020DF350150FD96EDA6ADECF2BF085
:10109000DDCF2CF02BC0D9FF2CC0DAFF2A50DF1691
:1010A00090EF08F02750D96EDA6ADF30E832E83284
:1010B000070B286E010E296E282A61EF08F0D890E0
:1010C0002936282E5FEF08F02750D96EDA6ADF50F4
:1010D000070B020DF350150FD96EDA6ADECF2AF036
:1010E000DDCF2BF02AC0D9FF2BC0DAFF2950DF1249
:1010F00090EF08F02750D96EDA6ADFBC82EF08F073
:1011000085EF08F0010E86EF08F0000E000AD8B453
:1011100027EF08F0010AD8B452EF08F023EF08F0E7
:101120002D501200010E2E6E2750D8B49AEF08F001
:101130009CEF08F0ACEF08F02750D96EDA6ADF3088
:10114000E832E832070B296E070E2964AAEF08F08F
:10115000ACEF08F003EF09F0000E2E6E18EF09F067
:101160002750D96EDA6ADF30E832E832070B296E91
:10117000010E2A6E292ABFEF08F0D8902A36292EB0
:10118000BDEF08F02A50FF0A2B6E2750D96EDA6A9D
:10119000DF50070B020DF3500B0FD96EDA6ADECF6A
:1011A0002CF0DDCF2DF02CC0D9FF2DC0DAFF2B5055
:1011B000DF1618EF09F02750D96EDA6ADF30E8320F
:1011C000E832070B296E010E2A6E292AEAEF08F091
:1011D000D8902A36292EE8EF08F02750D96EDA6A1F
:1011E000DF50070B020DF3500B0FD96EDA6ADECF1A
:1011F0002BF0DDCF2CF02BC0D9FF2CC0DAFF2A500A
:10120000DF1218EF09F02850296E2A6A2A50000AC6
:10121000D8B40DEF09F0ACEF08F02950000AD8B4AB
:10122000B0EF08F0010AD8B4DBEF08F0ACEF08F03B
:101230002E501200000E336E2F50D8B422EF09F05A
:1012400024EF09F02CEF09F03050D8A42AEF09F070
:101250002CEF09F030EF09F0000E326E9BEF09F031
:10126000000E376E000E366E000E356E000E346EB8
:101270002F503424276E000E286E92EC08F0344A6A
:10128000352A35BE4DEF09F0355009E1040E345CC6
:10129000D8A04DEF09F04FEF09F038EF09F02F50CB
:1012A0003624276E010E286E92EC08F0000E396E7F
:1012B000000E386E2F503824040F276E330E286E20
:1012C0009DEC09F0326E3304D8A469EF09F06BEF9E
:1012D00009F07BEF09F03650040DF350010F38246C
:1012E000316E31C0F6FF100EF76E3050D96EDA6AEB
:1012F0000800F5CFDFFF384A392A39BE89EF09F0F7
:10130000395009E1040E385CD8A089EF09F08BEF61
:1013100009F05AEF09F0364A372A37BE99EF09F03B
:10132000375009E1040E365CD8A099EF09F09BEF25
:1013300009F034EF09F032501200010E2D6E2750E3
:10134000D8B4A5EF09F0A7EF09F0BFEF09F02850D6
:10135000D8B4ADEF09F0AFEF09F0BFEF09F02750B7
:10136000D96EDA6ADF30E832E832070B296E070EF1
:101370002964BDEF09F0BFEF09F0C3EF09F0000EDB
:101380002D6EEDEF09F02850D96EDA6A2750E16E24
:10139000E26AE730E832E832070B296E2750E16E47
:1013A000E26AE750070B020DF350010FE16EE26AAB
:1013B000E6CF2AF0E5CF2BF02AC0E1FF2BC0E2FFF9
:1013C000E7502C6E292AE7EF09F0D8902C32292E0D
:1013D000E5EF09F02C50010BDF6E2D50120032505A
:1013E000D8A4F5EF09F0F7EF09F0FBEF09F0000ED4
:1013F000336E2FEF0AF0000E356E000E346E325051
:1014000034242F6E31EC0AF0344A352A35BE12EFFF
:101410000AF0355009E1040E345CD8A012EF0AF04E
:1014200014EF0AF0FFEF09F0000E376E000E366E73
:1014300032503624040F2F6E31EC0AF0336E364AE8
:10144000372A37BE2DEF0AF0375009E1040E365C1B
:10145000D8A02DEF0AF02FEF0AF018EF0AF0335062
:1014600012002F50D8B437EF0AF039EF0AF049EFE5
:101470000AF02F50D96EDA6ADF30E832E832070B13
:10148000306E070E306447EF0AF049EF0AF04DEF77
:101490000AF0000E316E5EEF0AF02FC027F009EC63
:1014A00008F0316E2FC027F02F50D96EDA6A000E87
:1014B000DFBE010E286E92EC08F0316E3150120042
:1014C000F60EF66E140EF76E000EF86E00EE01F0DA
:1014D00010EE26F00900F5CFEEFFE550E150FAE1FD
:1014E00000EE3AF0110EEE6AE806FDE1000EF86E2D
:1014F00000018EEF0AF0800F810F820F830F840F9F
:10150000890F8A0F8B0F8C0F8D0F920F930F940FF3
:10151000950F960F020A121A626A727A9BEC0AF011
:101520001F0E2F6E4A0E306E1AEC09F04B6E90EFC4
:101530000AF000EF00F01F0E326EEFEC09F04B6E78
:02154000120097
:020000040030CA
:0E000000FF021F1EFF8181FF0FC00FE00F40A7
:00000001FF
