:04000000A2EF09F072
:101000000000010E396E3350D8B409EF08F00BEF31
:1010100008F01BEF08F03350D96EDA6ADF30E8329F
:10102000E832070B346E070E346419EF08F01BEF3B
:1010300008F072EF08F0000E396E88EF08F03350B8
:10104000D96EDA6ADF30E832E832070B346E010E0F
:10105000356E342A2EEF08F0D8903536342E2CEF2A
:1010600008F03550FF0A366E3350D96EDA6ADF5019
:10107000070B020DF350150FD96EDA6ADECF37F089
:10108000DDCF38F037C0D9FF38C0DAFF3650DF1671
:1010900088EF08F03350D96EDA6ADF30E832E83290
:1010A000070B346E010E356E342A59EF08F0D890D4
:1010B0003536342E57EF08F03350D96EDA6ADF50E8
:1010C000070B020DF350150FD96EDA6ADECF36F03A
:1010D000DDCF37F036C0D9FF37C0DAFF3550DF1229
:1010E00088EF08F03350D96EDA6ADFBC7AEF08F087
:1010F0007DEF08F0010E7EEF08F0000E000AD8B474
:101100001FEF08F0010AD8B44AEF08F01BEF08F00F
:1011100039501200010E3A6E3350D8B492EF08F0F5
:1011200094EF08F0A4EF08F03350D96EDA6ADF309C
:10113000E832E832070B356E070E3564A2EF08F08F
:10114000A4EF08F0FBEF08F0000E3A6E10EF09F084
:101150003350D96EDA6ADF30E832E832070B356E89
:10116000010E366E352AB7EF08F0D8903636352E98
:10117000B5EF08F03650FF0A376E3350D96EDA6A91
:10118000DF50070B020DF3500B0FD96EDA6ADECF7A
:1011900038F0DDCF39F038C0D9FF39C0DAFF375029
:1011A000DF1610EF09F03350D96EDA6ADF30E8321B
:1011B000E832070B356E010E366E352AE2EF08F085
:1011C000D8903636352EE0EF08F03350D96EDA6A13
:1011D000DF50070B020DF3500B0FD96EDA6ADECF2A
:1011E00037F0DDCF38F037C0D9FF38C0DAFF3650DE
:1011F000DF1210EF09F03450356E366A3650000AAF
:10120000D8B405EF09F0A4EF08F03550000AD8B4BF
:10121000A8EF08F0010AD8B4D3EF08F0A4EF08F063
:101220003A5012003B50D8B418EF09F01AEF09F009
:1012300022EF09F0090E3C6420EF09F022EF09F0DB
:1012400026EF09F0000E3D6E4DEF09F03BC033F084
:101250003C50010B346E8AEC08F03D6E3B28336E37
:10126000D8903C30010B346E8AEC08F03D6E3B5058
:10127000020F336E3C40E8423F0B010B346E8AECA8
:1012800008F03D6E3B50030F336E3C38E8461F0BB1
:10129000010B346E8AEC08F03D6E3D5012003B505D
:1012A000D8B455EF09F057EF09F067EF09F03B505C
:1012B000D96EDA6ADF30E832E832070B3C6E070E8F
:1012C0003C6465EF09F067EF09F06BEF09F0000E81
:1012D0003D6E7CEF09F03BC033F001EC08F03D6E51
:1012E0003BC033F03B50D96EDA6A000EDFBE010E10
:1012F000346E8AEC08F03D6E3D5012003E50D8A48A
:1013000084EF09F086EF09F08AEF09F0000E3F6ED6
:10131000A0EF09F03EC03BF04FEC09F03F6E3E28D5
:101320003B6E4FEC09F03F6E3E50020F3B6E4FECB0
:1013300009F03F6E3E50030F3B6E4FEC09F03F6EDD
:101340003F5012007A0EF66E130EF76E000EF86E16
:1013500000EE01F010EE22F00900F5CFEEFFE550AF
:10136000E150FAE100EE23F0100EEE6AE806FDE12E
:10137000000EF86E0001CEEF09F0800F810F820F92
:10138000830F840F890F8A0F8B0F8C0F8D0F920F95
:10139000930F940F950F960F020A121ADBEC09F0C7
:1013A0001F0E3B6E050E3C6E12EC09F0406ED0EF46
:1013B00009F000EF00F01F0E3E6E7EEC09F0406E6B
:0213C000120019
:020000040030CA
:0E000000FF021F1EFF8181FF0FC00FE00F40A7
:00000001FF
