:0400000084EF0CF08D
:10100000003738392F3435362A3132332D23303DED
:0D1010002B52656164696E67002569000060
:10101E00010E336E2D50D8B417EF08F019EF08F00B
:10102E0029EF08F02D50D96EDA6ADF30E832E83257
:10103E00070B2E6E070E2E6427EF08F029EF08F02F
:10104E0080EF08F0000E336E96EF08F02D50D96E3B
:10105E00DA6ADF30E832E832070B2E6E010E2F6EA1
:10106E002E2A3CEF08F0D8902F362E2E3AEF08F0AD
:10107E002F50FF0A306E2D50D96EDA6ADF50070BF3
:10108E00020DF350150FD96EDA6ADECF31F0DDCFD7
:10109E0032F031C0D9FF32C0DAFF3050DF1696EF92
:1010AE0008F02D50D96EDA6ADF30E832E832070BDD
:1010BE002E6E010E2F6E2E2A67EF08F0D8902F3667
:1010CE002E2E65EF08F02D50D96EDA6ADF50070B21
:1010DE00020DF350150FD96EDA6ADECF30F0DDCF88
:1010EE0031F030C0D9FF31C0DAFF2F50DF1296EF4A
:1010FE0008F02D50D96EDA6ADFBC88EF08F08BEF5E
:10110E0008F0010E8CEF08F0000E000AD8B42DEF97
:10111E0008F0010AD8B458EF08F029EF08F0335060
:10112E001200010E346E2D50D8B4A0EF08F0A2EFCD
:10113E0008F0B2EF08F02D50D96EDA6ADF30E832DF
:10114E00E832070B2F6E070E2F64B0EF08F0B2EFE8
:10115E0008F009EF09F0000E346E1EEF09F02D5065
:10116E00D96EDA6ADF30E832E832070B2F6E010EE5
:10117E00306E2F2AC5EF08F0D89030362F2EC3EFE1
:10118E0008F03050FF0A316E2D50D96EDA6ADF50FA
:10119E00070B020DF3500B0FD96EDA6ADECF32F069
:1011AE00DDCF33F032C0D9FF33C0DAFF3150DF1656
:1011BE001EEF09F02D50D96EDA6ADF30E832E832D0
:1011CE00070B2F6E010E306E2F2AF0EF08F0D8901D
:1011DE0030362F2EEEEF08F02D50D96EDA6ADF5032
:1011EE00070B020DF3500B0FD96EDA6ADECF31F01A
:1011FE00DDCF32F031C0D9FF32C0DAFF3050DF120E
:10120E001EEF09F02E502F6E306A3050000AD8B4FF
:10121E0013EF09F0B2EF08F02F50000AD8B4B6EF72
:10122E0008F0010AD8B4E1EF08F0B2EF08F034503C
:10123E001200000E396E3550D8B428EF09F02AEF9F
:10124E0009F032EF09F03650D8A430EF09F032EF42
:10125E0009F036EF09F0000E386EA1EF09F0000E1E
:10126E003D6E000E3C6E000E3B6E000E3A6E35501B
:10127E003A242D6E000E2E6E98EC08F03A4A3B2A58
:10128E003BBE53EF09F03B5009E1040E3A5CD8A087
:10129E0053EF09F055EF09F03EEF09F035503C24BD
:1012AE002D6E010E2E6E98EC08F0000E3F6E000EA5
:1012BE003E6E35503E24040F2D6E390E2E6ECEEC42
:1012CE000AF0386E3904D8A46FEF09F071EF09F007
:1012DE0081EF09F03C50040DF350010F3E24376EA0
:1012EE0037C0F6FF100EF76E3650D96EDA6A080068
:1012FE00F5CFDFFF3E4A3F2A3FBE8FEF09F03F504A
:10130E0009E1040E3E5CD8A08FEF09F091EF09F0D1
:10131E0060EF09F03C4A3D2A3DBE9FEF09F03D507B
:10132E0009E1040E3C5CD8A09FEF09F0A1EF09F093
:10133E003AEF09F0385012003F50D8A4A9EF09F047
:10134E00ABEF09F0AFEF09F0000E436E1BEF0AF0A2
:10135E003FC035F0D7EC0BF0436E3F28356ED7EC1F
:10136E000BF0436E000E426E000E416E3F50412454
:10137E00020F356ED7EC0BF0414A422A42BED1EF36
:10138E0009F0425009E1040E415CD8A0D1EF09F0FA
:10139E00D3EF09F0BDEF09F0340E406EF20EE82ED9
:1013AE00FED7402EFCD73FC03CF0380E3D6E34ECDD
:1013BE000CF00D0E406EFC0EE82EFED7402EFCD724
:1013CE003FC03CF0380E3D6E34EC0CF0640EE82E4F
:1013DE00FED73FC03CF0380E3D6E34EC0CF03FC0F3
:1013EE003CF0010E3D6E34EC0CF03FC03CF0020EB2
:1013FE003D6E34EC0CF03FC03CF0060E3D6E34EC0E
:10140E000CF03FC03CF00C0E3D6E34EC0CF03FC0C7
:10141E003CF0280E3D6E34EC0CF03FC03CF0800EDC
:10142E003D6E34EC0CF0436E435012004350D8B472
:10143E0023EF0AF025EF0AF02EEF0AF04650471080
:10144E00D8A42CEF0AF02EEF0AF032EF0AF0000EBD
:10145E00486E79EF0AF043C03FF044C040F045C0FB
:10146E0041F07BEC0AF0486E60EF0AF043C03CF0AE
:10147E0046C0F6FF47C0F7FF000EF86E0F0EF7647A
:10148E0003D00800F55005D0F6CFE9FFF7CFEAFFFD
:10149E00EF503D6E06EC0CF0486E464A472A480463
:1014AE00D8B45CEF0AF05EEF0AF060EF0AF079EF65
:1014BE000AF046C0F6FF47C0F7FF000EF86E0F0E9B
:1014CE00F76403D00800F55005D0F6CFE9FFF7CF4B
:1014DE00EAFFEF500009D8A477EF0AF079EF0AF08F
:1014EE003DEF0AF04850120041063F50D8A482EF5B
:1014FE000AF084EF0AF0B9EF0AF0000E426ECCEF5C
:10150E000AF03FC03CF04150800F3D6E34EC0CF0C1
:10151E00426ECCEF0AF03FC03CF04150C00F3D6E22
:10152E0034EC0CF0426ECCEF0AF03FC03CF0415070
:10153E00940F3D6E34EC0CF0426ECCEF0AF03FC0CF
:10154E003CF04150D40F3D6E34EC0CF0426ECCEFBB
:10155E000AF03FC03CF0020E3D6E34EC0CF0426ED1
:10156E00CCEF0AF04050010AD8B488EF0AF0030A13
:10157E00D8B492EF0AF0010AD8B49CEF0AF0070A29
:10158E00D8B4A6EF0AF0B0EF0AF042501200010EE6
:10159E00336E2D50D8B4D6EF0AF0D8EF0AF0F0EF34
:1015AE000AF02E50D8B4DEEF0AF0E0EF0AF0F0EFBA
:1015BE000AF02D50D96EDA6ADF30E832E832070BC6
:1015CE002F6E070E2F64EEEF0AF0F0EF0AF0F4EF35
:1015DE000AF0000E336E1EEF0BF02E50D96EDA6A43
:1015EE002D50E16EE26AE730E832E832070B2F6EDB
:1015FE002D50E16EE26AE750070B020DF350010F1A
:10160E00E16EE26AE6CF30F0E5CF31F030C0E1FFB7
:10161E0031C0E2FFE750326E2F2A18EF0BF0D89050
:10162E0032322F2E16EF0BF03250010BDF6E33508D
:10163E0012003850D8A426EF0BF028EF0BF02CEF49
:10164E000BF0000E396E60EF0BF0000E3B6E000ECD
:10165E003A6E38503A24356ED7EC0BF03A4A3B2AA4
:10166E003BBE43EF0BF03B5009E1040E3A5CD8A0B1
:10167E0043EF0BF045EF0BF030EF0BF0000E3D6E2D
:10168E00000E3C6E38503C24040F356ED7EC0BF038
:10169E00396E3C4A3D2A3DBE5EEF0BF03D5009E1EE
:1016AE00040E3C5CD8A05EEF0BF060EF0BF049EF40
:1016BE000BF039501200B5EC0CF01F0E356E590EB2
:1016CE00366E20EC09F0270E436E010E446E010EAD
:1016DE00456E110E466E4650D8A4100E476E1DEC88
:1016EE000AF05A6E270E436E020E446E010E456EC0
:1016FE00590E466E476A1DEC0AF05A6E1F0E356E75
:10170E00590E366E20EC09F05A6E270E436E010EFE
:10171E00446E010E456E110E466E4650D8A4100E44
:10172E00476E1DEC0AF05A6E79EF0BF000EF00F0E9
:10173E003550D8A4A5EF0BF0A7EF0BF0ABEF0BF0E5
:10174E00000E396ED5EF0BF0000E3B6E000E3A6EAA
:10175E0035503A24020F2D6E3AC037F036C038F0AD
:10176E00372ABCEF0BF0D8903832372EBAEF0BF089
:10177E003850010B2E6E98EC08F0396E3A4A3B2A1F
:10178E003BBED3EF0BF03B5009E1040E3A5CD8A000
:10179E00D3EF0BF0D5EF0BF0AFEF0BF0395012008B
:1017AE003550D8B4DDEF0BF0DFEF0BF0EFEF0BF0B1
:1017BE003550D96EDA6ADF30E832E832070B366E12
:1017CE00070E3664EDEF0BF0EFEF0BF0F3EF0BF0CF
:1017DE00000E376E04EF0CF035C02DF00FEC08F054
:1017EE00376E35C02DF03550D96EDA6A000EDFBE79
:1017FE00010E2E6E98EC08F0376E375012003C50EA
:10180E00D8A40CEF0CF00EEF0CF012EF0CF0000E53
:10181E003E6E32EF0CF03CC02DF0010E2E6E98ECA9
:10182E0008F03E6E3CC035F03D380F0B366E9FEC27
:10183E000BF03E6E3CC035F062EC0CF03E6E3CC0E0
:10184E0035F03DC036F09FEC0BF03E6E3CC035F0EF
:10185E0062EC0CF03E6E3E5012003C50D8A43AEFB3
:10186E000CF03CEF0CF040EF0CF0000E3E6E60EF13
:10187E000CF03CC02DF0000E2E6E98EC08F03E6E73
:10188E003CC035F03D380F0B366E9FEC0BF03E6EC4
:10189E003CC035F062EC0CF03E6E3CC035F03DC005
:1018AE0036F09FEC0BF03E6E3CC035F062EC0CF067
:1018BE003E6E3E5012003550D8A468EF0CF06AEF21
:1018CE000CF06EEF0CF0000E376E82EF0CF0352838
:1018DE002D6E010E2E6E98EC08F0030E366E980EDD
:1018EE00E82EFED7362EFCD735282D6E000E2E6E26
:1018FE0098EC08F0376E375012003E0EF66E190E49
:10190E00F76E000EF86E00EE01F010EE2CF00900EE
:10191E00F5CFEEFFE550E150FAE100EE49F0110E81
:10192E00EE6AE806FDE1000EF86E000162EF0BF0C4
:10193E00800F810F820F830F840F890F8A0F8B0FF9
:10194E008C0F8D0F920F930F940F950F960F030B15
:10195E00131B636B737B1A12222A323A1F0E386ED8
:10196E0020EC0BF05A6E270E3F6EA3EC09F05A6E68
:02197E00120055
:020000040030CA
:0E000000FF021F1EFF8181FF0FC00FE00F40A7
:00000001FF
