:0400000007EF00F016
:0A0008003F820BED08F0CEEF08F088
:10100000003738392F3435362A3132332D23303DED
:051010002B2569000022
:1010160006009DAC11EF08F013EF08F01CEF08F086
:101026009EAC18EF08F01AEF08F01CEF08F00CEC75
:1010360009F0F2A621EF08F023EF08F03CEF08F0E4
:10104600F2A028EF08F02AEF08F03CEF08F081AA9A
:101056002FEF08F031EF08F033EF08F002EC09F05B
:1010660081BA38EF08F03AEF08F03CEF08F002ECEE
:1010760009F0F2A641EF08F043EF08F05CEF08F044
:10108600F2A048EF08F04AEF08F05CEF08F081A8FC
:101096004FEF08F051EF08F053EF08F004EC09F0B9
:1010A60081B858EF08F05AEF08F05CEF08F004EC4E
:1010B60009F0F2A661EF08F063EF08F07CEF08F0A4
:1010C600F2A068EF08F06AEF08F07CEF08F081AC58
:1010D6006FEF08F071EF08F073EF08F000EC09F01D
:1010E60081BC78EF08F07AEF08F07CEF08F000ECAE
:1010F60009F0F2A681EF08F083EF08F09CEF08F004
:10110600F2A088EF08F08AEF08F09CEF08F081AEB5
:101116008FEF08F091EF08F093EF08F0FEEC08F07F
:1011260081BE98EF08F09AEF08F09CEF08F0FEEC0D
:1011360008F0F2A8A1EF08F0A3EF08F0ACEF08F072
:10114600F2A2A8EF08F0AAEF08F0ACEF08F00AEC5C
:1011560009F0F0A6B1EF08F0B3EF08F0BCEF08F025
:10116600F0A0B8EF08F0BAEF08F0BCEF08F008EC12
:1011760009F0F0A8C1EF08F0C3EF08F0CCEF08F0D3
:10118600F0A2C8EF08F0CAEF08F0CCEF08F006ECC2
:1011960009F03F921100D20EF66E110EF76E000E98
:1011A600F86E00EE21F010EE1EF00900F5CFEEFF0E
:1011B600E550E150FAE100EE01F0200EEE6AE80695
:1011C600FDE13F903F920001F8EF08F0800F810F9C
:1011D600820F830F840F890F8A0F8B0F8C0F8D0F51
:1011E600920F930F940F950F960F0EEC09F0FAEFEE
:1011F60008F007EF00F0F2901200F2901200F29061
:101206001200F2901200F0921200F0901200F29288
:0812160012009E9C1200120060
:020000040030CA
:0E000000FF021F1EFF8181FF0FC00FE00F40A7
:00000001FF
