:04000000F8EF0AF01B
:10100000003738392F3435362A3132332D23303DED
:101010002B00010E316E2B50D8B411EF08F013EFF6
:1010200008F023EF08F02B50D96EDA6ADF30E8328F
:10103000E832070B2C6E070E2C6421EF08F023EF2B
:1010400008F07AEF08F0000E316E90EF08F02B50A8
:10105000D96EDA6ADF30E832E832070B2C6E010E07
:101060002D6E2C2A36EF08F0D8902D362C2E34EF2A
:1010700008F02D50FF0A2E6E2B50D96EDA6ADF5021
:10108000070B020DF350150FD96EDA6ADECF2FF081
:10109000DDCF30F02FC0D9FF30C0DAFF2E50DF1681
:1010A00090EF08F02B50D96EDA6ADF30E832E83280
:1010B000070B2C6E010E2D6E2C2A61EF08F0D890D4
:1010C0002D362C2E5FEF08F02B50D96EDA6ADF50E8
:1010D000070B020DF350150FD96EDA6ADECF2EF032
:1010E000DDCF2FF02EC0D9FF2FC0DAFF2D50DF1239
:1010F00090EF08F02B50D96EDA6ADFBC82EF08F06F
:1011000085EF08F0010E86EF08F0000E000AD8B453
:1011100027EF08F0010AD8B452EF08F023EF08F0E7
:1011200031501200010E326E2B50D8B49AEF08F0F5
:101130009CEF08F0ACEF08F02B50D96EDA6ADF3084
:10114000E832E832070B2D6E070E2D64AAEF08F087
:10115000ACEF08F003EF09F0000E326E18EF09F063
:101160002B50D96EDA6ADF30E832E832070B2D6E89
:10117000010E2E6E2D2ABFEF08F0D8902E362D2EA0
:10118000BDEF08F02E50FF0A2F6E2B50D96EDA6A91
:10119000DF50070B020DF3500B0FD96EDA6ADECF6A
:1011A00030F0DDCF31F030C0D9FF31C0DAFF2F5041
:1011B000DF1618EF09F02B50D96EDA6ADF30E8320B
:1011C000E832070B2D6E010E2E6E2D2AEAEF08F085
:1011D000D8902E362D2EE8EF08F02B50D96EDA6A13
:1011E000DF50070B020DF3500B0FD96EDA6ADECF1A
:1011F0002FF0DDCF30F02FC0D9FF30C0DAFF2E50F6
:10120000DF1218EF09F02C502D6E2E6A2E50000AB6
:10121000D8B40DEF09F0ACEF08F02D50000AD8B4A7
:10122000B0EF08F0010AD8B4DBEF08F0ACEF08F03B
:1012300032501200000E376E3350D8B422EF09F04E
:1012400024EF09F02CEF09F03450D8A42AEF09F06C
:101250002CEF09F030EF09F0000E366E9BEF09F02D
:10126000000E3B6E000E3A6E000E396E000E386EA8
:10127000335038242B6E000E2C6E92EC08F0384A56
:10128000392A39BE4DEF09F0395009E1040E385CB6
:10129000D8A04DEF09F04FEF09F038EF09F03350C7
:1012A0003A242B6E010E2C6E92EC08F0000E3D6E6F
:1012B000000E3C6E33503C24040F2B6E370E2C6E08
:1012C0009DEC09F0366E3704D8A469EF09F06BEF96
:1012D00009F07BEF09F03A50040DF350010F3C2464
:1012E000356E35C0F6FF100EF76E3450D96EDA6ADF
:1012F0000800F5CFDFFF3C4A3D2A3DBE89EF09F0EB
:101300003D5009E1040E3C5CD8A089EF09F08BEF59
:1013100009F05AEF09F03A4A3B2A3BBE99EF09F02F
:101320003B5009E1040E3A5CD8A099EF09F09BEF1D
:1013300009F034EF09F036501200010E316E2B50D7
:10134000D8B4A5EF09F0A7EF09F0BFEF09F02C50D2
:10135000D8B4ADEF09F0AFEF09F0BFEF09F02B50B3
:10136000D96EDA6ADF30E832E832070B2D6E070EED
:101370002D64BDEF09F0BFEF09F0C3EF09F0000ED7
:10138000316EEDEF09F02C50D96EDA6A2B50E16E18
:10139000E26AE730E832E832070B2D6E2B50E16E3F
:1013A000E26AE750070B020DF350010FE16EE26AAB
:1013B000E6CF2EF0E5CF2FF02EC0E1FF2FC0E2FFE9
:1013C000E750306E2D2AE7EF09F0D89030322D2EFD
:1013D000E5EF09F03050010BDF6E3150120036504E
:1013E000D8A4F5EF09F0F7EF09F0FBEF09F0000ED4
:1013F000376E2FEF0AF0000E396E000E386E365041
:101400003824336EA5EC0AF0384A392A39BE12EF77
:101410000AF0395009E1040E385CD8A012EF0AF046
:1014200014EF0AF0FFEF09F0000E3B6E000E3A6E6B
:1014300036503A24040F336EA5EC0AF0376E3A4A60
:101440003B2A3BBE2DEF0AF03B5009E1040E3A5C0B
:10145000D8A02DEF0AF02FEF0AF018EF0AF037505E
:1014600012003350D8B437EF0AF039EF0AF041EFE9
:101470000AF0090E34643FEF0AF041EF0AF045EF3D
:101480000AF0000E356E6CEF0AF033C02BF03450CA
:10149000010B2C6E92EC08F0356E33282B6ED89031
:1014A0003430010B2C6E92EC08F0356E3350020F85
:1014B0002B6E3440E8423F0B010B2C6E92EC08F08F
:1014C000356E3350030F2B6E3438E8461F0B010B7B
:1014D0002C6E92EC08F0356E3550120028EC0BF0B3
:1014E0001F0E336E510E346E1AEC09F0526E020E5E
:1014F0003F6E040E3E6EBA0EE82EFED73E2EFCD78F
:101500003F2EFAD700D02F0E516489EF0AF08BEFEF
:101510000AF098EF0AF03A0E516091EF0AF093EF5B
:101520000AF098EF0AF05150D00F406E9AEF0AF08F
:101530000F0E406E270E336E40C034F031EC0AF0CF
:10154000526E70EF0AF000EF00F03350D8B4ABEFFA
:101550000AF0ADEF0AF0BDEF0AF03350D96EDA6A47
:10156000DF30E832E832070B346E070E3464BBEF2D
:101570000AF0BDEF0AF0C1EF0AF0000E356ED2EFAF
:101580000AF033C02BF009EC08F0356E33C02BF0B5
:101590003350D96EDA6A000EDFBE010E2C6E92EC6B
:1015A00008F0356E355012003650D8A4DAEF0AF044
:1015B000DCEF0AF0E0EF0AF0000E376EF6EF0AF00B
:1015C00036C033F0A5EC0AF0376E3628336EA5EC42
:1015D0000AF0376E3650020F336EA5EC0AF0376E04
:1015E0003650030F336EA5EC0AF0376E37501200F9
:1015F000260EF66E160EF76E000EF86E00EE01F077
:1016000010EE2AF00900F5CFEEFFE550E150FAE1C7
:1016100000EE40F0120EEE6AE806FDE1000EF86EF4
:1016200000016EEF0AF0800F810F820F830F840F8D
:10163000890F8A0F8B0F8C0F8D0F920F930F940FC2
:10164000950F960F020A121A626A727A030B131B25
:101650001F0E366EEFEC09F0526E270E366ED4EC8C
:061660000AF0526E1200B8
:020000040030CA
:0E000000FF021F1EFF8181FF0FC00FE00F40A7
:00000001FF
