:0400000007EF00F016
:0A0008007282F4ED08F020EF0FF013
:10100000003738392F3435362A3132332D23303DED
:101010002B504F54313A2000504F54323A20002088
:1010200020202000256900001750D96EDA6ADFCF32
:10103000F6FF100EF76EF86A0800F550250AD8A4DE
:1010400024EF08F026EF08F0E1EF08F01750D96E12
:10105000DA6ADF2A000E2E6E000E2D6E2DC041F0D2
:101060002F6830681750D96EDA6ADF501B6E1BC0CC
:10107000F6FF100EF76EF86A0800F550640AD8B44F
:1010800044EF08F046EF08F055EF08F01BC0F6FFFC
:10109000100EF76EF86A0800F550690AD8A453EFED
:1010A00008F055EF08F0DBEF08F01850D96EDA6A57
:1010B000020EDF26DF5CD96EDA6ADECF1CF0DECFEF
:1010C0001DF01750D96EDA6A1B28DF6E200E206ED5
:1010D0001DBE6DEF08F070EF08F0010E71EF08F023
:1010E000000E1A6E20062050800FD96EDA6A1CC0DE
:1010F0000CF01DC00DF0000E0F6E0A0E0E6EE8EC27
:101100000DF00CC012F00DC013F0DCEC10F012501A
:10111000300FDF6E1CC00CF01DC00DF0000E0F6E06
:101120000A0E0E6E28EC0DF00CC01CF00DC01DF068
:101130001C501D10D8B49FEF08F0A1EF08F0A9EFE4
:1011400008F02050D8A4A7EF08F0A9EF08F072EF3C
:1011500008F02050D8B4AFEF08F0B1EF08F0D0EFAE
:1011600008F01A50D8B4B7EF08F0B9EF08F0D0EF94
:1011700008F020062050800FD96EDA6A2D0EDF6E3F
:10118000D0EF08F02050800FD96EDA6ADF50196E68
:1011900019500C6E0D6A16C00EF040EC0EF0202AAD
:1011A000200E2018D8A4D7EF08F0D9EF08F0C2EF2E
:1011B00008F0F3EF08F01750D96EDA6ADF2AF3EF80
:1011C00008F01750D96EDA6ADFCFF6FF100EF76E0F
:1011D000F86A0800F5500C6E0D6A16C00EF040EC6F
:1011E0000EF0DBEF08F012000600FACF08F0FBCF9C
:1011F00009F0D9CF0AF0DACF0BF09DAC02EF09F07D
:1012000004EF09F00DEF09F09EAC09EF09F00BEFC8
:1012100009F00DEF09F028EC11F0F2A612EF09F039
:1012200014EF09F02DEF09F0F2A019EF09F01BEF10
:1012300009F02DEF09F081AA20EF09F022EF09F063
:1012400024EF09F076EC11F081BA29EF09F02BEFC9
:1012500009F02DEF09F076EC11F0F2A632EF09F06B
:1012600034EF09F04DEF09F0F2A039EF09F03BEF50
:1012700009F04DEF09F081A840EF09F042EF09F0C5
:1012800044EF09F078EC11F081B849EF09F04BEF29
:1012900009F04DEF09F078EC11F0F2A652EF09F0E9
:1012A00054EF09F06DEF09F0F2A059EF09F05BEF90
:1012B00009F06DEF09F081AC60EF09F062EF09F021
:1012C00064EF09F074EC11F081BC69EF09F06BEF89
:1012D00009F06DEF09F074EC11F0F2A672EF09F06D
:1012E00074EF09F08DEF09F0F2A079EF09F07BEFD0
:1012F00009F08DEF09F081AE80EF09F082EF09F07F
:1013000084EF09F072EC11F081BE89EF09F08BEFE8
:1013100009F08DEF09F072EC11F0F2A892EF09F0EC
:1013200094EF09F09DEF09F0F2A299EF09F09BEF1D
:1013300009F09DEF09F07EEC11F0F0A6A2EF09F0A4
:10134000A4EF09F0ADEF09F0F0A0A9EF09F0ABEFC1
:1013500009F0ADEF09F07CEC11F0F0A8B2EF09F064
:10136000B4EF09F0BDEF09F0F0A2B9EF09F0BBEF5F
:1013700009F0BDEF09F07AEC11F00BC0DAFF0AC0FA
:10138000D9FF09C0FBFF08C0FAFF729211005DECA3
:1013900011F06B0E226E010E236E010E246E110EE3
:1013A000256E2550D8A4100E266E8AEC0DF0716EB5
:1013B0006B0E226E020E236E010E246E180E256E29
:1013C0002550D8A4100E266E8AEC0DF0716E425096
:1013D000D8A4EDEF09F0EFEF09F01BEF0AF0C20E11
:1013E000136E000E146EF6EC10F0716E55C029F0FD
:1013F00056C02AF0AC0E2B6EDCEC0FF0716E6B0E4B
:10140000226E010E236E060E246E1F0E256E2550D1
:10141000D8A4100E266E8AEC0DF06B0E226E010E13
:10142000236E060E246EAC0E256E266A8AEC0DF035
:10143000716EE7EF09F04204D8A421EF0AF023EF20
:101440000AF0E7EF09F0C20E136E010E146EF6EC0F
:1014500010F0716E53C029F054C02AF0A00E2B6E0C
:10146000DCEC0FF0716E6B0E226E020E236E060E18
:10147000246E1F0E256E2550D8A4100E266E8AEC01
:101480000DF06B0E226E020E236E060E246EA00E61
:10149000256E266A8AEC0DF0716EE7EF09F007EF12
:1014A00000F0010E126E0C50D8B459EF0AF05BEF49
:1014B0000AF06BEF0AF00C50D96EDA6ADF30E832CE
:1014C000E832070B0D6E070E0D6469EF0AF06BEF43
:1014D0000AF0C2EF0AF0000E126ED8EF0AF00C50BC
:1014E000D96EDA6ADF30E832E832070B0D6E010E92
:1014F0000E6E0D2A7EEF0AF0D8900E360D2E7CEF80
:101500000AF00E50FF0A0F6E0C50D96EDA6ADF50E7
:10151000070B020DF350610FD96EDA6ADECF10F0BF
:10152000DDCF11F010C0D9FF11C0DAFF0F50DF1668
:10153000D8EF0AF00C50D96EDA6ADF30E832E832C0
:10154000070B0D6E010E0E6E0D2AA9EF0AF0D89052
:101550000E360D2EA7EF0AF00C50D96EDA6ADF5066
:10156000070B020DF350610FD96EDA6ADECF0FF070
:10157000DDCF10F00FC0D9FF10C0DAFF0E50DF1220
:10158000D8EF0AF00C50D96EDA6ADFBCCAEF0AF065
:10159000CDEF0AF0010ECEEF0AF0000E000AD8B42B
:1015A0006FEF0AF0010AD8B49AEF0AF06BEF0AF075
:1015B00012501200010E136E0C50D8B4E2EF0AF074
:1015C000E4EF0AF0F4EF0AF00C50D96EDA6ADF307B
:1015D000E832E832070B0E6E070E0E64F2EF0AF0E7
:1015E000F4EF0AF04BEF0BF0000E136E60EF0BF010
:1015F0000C50D96EDA6ADF30E832E832070B0E6E33
:10160000010E0F6E0E2A07EF0BF0D8900F360E2E3C
:1016100005EF0BF00F50FF0A106E0C50D96EDA6A0E
:10162000DF50070B020DF350570FD96EDA6ADECF89
:1016300011F0DDCF12F011C0D9FF12C0DAFF105047
:10164000DF1660EF0BF00C50D96EDA6ADF30E8324B
:10165000E832070B0E6E010E0F6E0E2A32EF0BF002
:10166000D8900F360E2E30EF0BF00C50D96EDA6A90
:10167000DF50070B020DF350570FD96EDA6ADECF39
:1016800010F0DDCF11F010C0D9FF11C0DAFF0F50FC
:10169000DF1260EF0BF00D500E6E0F6A0F50000A54
:1016A000D8B455EF0BF0F4EF0AF00E50000AD8B49E
:1016B000F8EF0AF0010AD8B423EF0BF0F4EF0AF0C8
:1016C000135012001E50D8A468EF0BF06AEF0BF015
:1016D0006EEF0BF0000E226EDAEF0BF01EC014F06E
:1016E00051EC0FF0226E1E28146E51EC0FF0226E9A
:1016F000000E216E000E206E1E502024020F146E6C
:1017000051EC0FF0204A212A21BE90EF0BF021501E
:1017100009E1040E205CD8A090EF0BF092EF0BF0E3
:101720007CEF0BF0340E1F6EF20EE82EFED71F2E4C
:10173000FCD71EC01BF0380E1C6EAEEC0FF00D0E69
:101740001F6EFC0EE82EFED71F2EFCD71EC01BF00E
:10175000380E1C6EAEEC0FF0640EE82EFED71EC0E5
:101760001BF0380E1C6EAEEC0FF01EC01BF0010E0D
:101770001C6EAEEC0FF01EC01BF0020E1C6EAEEC29
:101780000FF01EC01BF0060E1C6EAEEC0FF01EC05C
:101790001BF00C0E1C6EAEEC0FF01EC01BF0280EE2
:1017A0001C6EAEEC0FF01EC01BF0800E1C6EAEEC7B
:1017B0000FF0226E22501200010E126E0F50D8A4AC
:1017C000E4EF0BF0E6EF0BF0EAEF0BF0000E126E19
:1017D00052EF0CF0C2900F50D96EDA6A040ED9267F
:1017E000DF50106E104610461046C0501018C70B40
:1017F0001018C06E0F50D96EDA6A030ED926DF506A
:10180000106EC0501018F80B1018C06E0F50D96E23
:10181000DA6A060ED926DF50106E10461046C25006
:101820001018C30B1018C26E0F50D96EDA6A060E6C
:10183000D926DF5054EC0CF0F28CF28E9D8C9E9CDD
:1018400028EF0CF09F8C42EF0CF09F9C42EF0CF0C5
:101850000F50D96EDA6A020ED926DF50106E116A67
:101860001150000AD8B437EF0CF042EF0CF01050D2
:10187000000AD8B425EF0CF0010AD8B422EF0CF01E
:1018800042EF0CF00F50D96EDA6ADECF3FF0DDCFB9
:1018900040F00FC00CF0A4EC10F00FC00CF069EC9D
:1018A00010F0C280125012000E6E7EEF0CF092808B
:1018B000BFEF0CF09282BFEF0CF09284BFEF0CF000
:1018C0009286BFEF0CF0928ABFEF0CF09680BFEFCC
:1018D0000CF09682BFEF0CF09684BFEF0CF093846F
:1018E000BFEF0CF09386BFEF0CF09382BFEF0CF0CC
:1018F0009388BFEF0CF09380BFEF0CF00E500C6E8E
:101900000D6A0D50000AD8B488EF0CF0BFEF0CF050
:101910000C50000AD8B457EF0CF0010AD8B45AEFB3
:101920000CF0030AD8B45DEF0CF0010AD8B460EFF4
:101930000CF0070AD8B463EF0CF0010AD8B466EFD4
:101940000CF0030AD8B469EF0CF0010AD8B46CEFBC
:101950000CF00F0AD8B46FEF0CF0010AD8B472EF94
:101960000CF0030AD8B475EF0CF0010AD8B478EF84
:101970000CF0070AD8B47BEF0CF0BFEF0CF01200AC
:10198000010E076E0150D8B4C8EF0CF0CAEF0CF08E
:10199000D2EF0CF00250D8A4D0EF0CF0D2EF0CF044
:1019A00016EF0DF0000E076E26EF0DF0C350C4CFFA
:1019B00003F0046A03C004F0036A0326000E042245
:1019C0000250D96EDA6A03C0DEFF04C0DDFF26EFE5
:1019D0000DF0C350C4CF03F0046A03C004F0036ADF
:1019E0000326000E0422060E056E04340432033270
:1019F000052EF5EF0CF00250D96EDA6A03C0DEFF57
:101A000004C0DDFF26EF0DF0C450046E036AC3501E
:101A10000324056E000E0420066E0250D96EDA6AA9
:101A200005C0DEFF06C0DDFF26EF0DF00150D96EC8
:101A3000DA6A080ED926DF50000AD8B4E9EF0CF0B4
:101A4000010AD8B4D6EF0CF004EF0DF007501200E5
:101A5000000E116E0FBE31EF0DF02FEF0DF037EFCE
:101A60000DF00E6C0F1ED8B00F2A010E116E0DBEB8
:101A70003EEF0DF03CEF0DF044EF0DF00C6C0D1E41
:101A8000D8B00D2A010E111A000E136E000E126E40
:101A90000E500F10D8B44FEF0DF051EF0DF079EF5D
:101AA0000DF0010E106E59EF0DF0D8900E360F3676
:101AB000102A0FAE5EEF0DF060EF0DF055EF0DF058
:101AC000D890123613360E500C5C0F500D58D8A01B
:101AD0006CEF0DF06EEF0DF073EF0DF00E500C5E2D
:101AE0000F500D5A1280D8900F320E32102E60EF28
:101AF0000DF01150D8B47FEF0DF081EF0DF085EFB0
:101B00000DF0126C131ED8B0132A12C00CF013C0C3
:101B10000DF012002250D8B490EF0DF092EF0DF0BE
:101B20009BEF0DF025502610D8A499EF0DF09BEFF8
:101B30000DF09FEF0DF0000E276EE6EF0DF022C0C6
:101B40001EF023C01FF024C020F095EC0EF0276E8D
:101B5000CDEF0DF022C01BF025C0F6FF26C0F7FF29
:101B6000000EF86E0F0EF76403D00800F55005D094
:101B7000F6CFE9FFF7CFEAFFEF501C6E80EC0FF0D5
:101B8000276E254A262A2704D8B4C9EF0DF0CBEFDB
:101B90000DF0CDEF0DF0E6EF0DF025C0F6FF26C0FD
:101BA000F7FF000EF86E0F0EF76403D00800F55033
:101BB00005D0F6CFE9FFF7CFEAFFEF500009D8A430
:101BC000E4EF0DF0E6EF0DF0AAEF0DF02750120054
:101BD000000E116E0DBEF1EF0DF0EFEF0DF0F7EF0F
:101BE0000DF00C6C0D1ED8B00D2A010E116E0FBE3B
:101BF000FEEF0DF0FCEF0DF002EF0EF00E6C0F1E7D
:101C0000D8B00F2A0E500F10D8B409EF0EF00BEF1A
:101C10000EF02FEF0EF0010E106E13EF0EF0D890B5
:101C20000E360F36102A0FAE18EF0EF01AEF0EF028
:101C30000FEF0EF00E500C5C0F500D58D8A023EF94
:101C40000EF025EF0EF029EF0EF00E500C5E0F5047
:101C50000D5AD8900F320E32102E1AEF0EF011508E
:101C6000D8B435EF0EF037EF0EF03BEF0EF00C6C02
:101C70000D1ED8B00D2A0CC00CF00DC00DF01200D6
:101C80000E50D8B446EF0EF048EF0EF050EF0EF0C5
:101C90000E50D8A44EEF0EF050EF0EF055EF0EF0B0
:101CA0000C5080EC11F094EF0EF00E50D96EDA6A01
:101CB0000A0ED926DE50DE10D8B461EF0EF063EFC5
:101CC0000EF07CEF0EF00E50D96EDA6A0A0ED926AD
:101CD0000E50E16EE26A030EE126DE50E65CE6504D
:101CE000800A136EDE50800A1358D8B07AEF0EF0D7
:101CF0007CEF0EF094EF0EF00E50D96EDA6A030E00
:101D0000D926DF500F6E0E50D96EDA6ADF500F24DD
:101D1000D96EDA6A0CC0DFFF0E50D96EDA6A030E94
:101D2000D926DE2A000EDD22120020061E50D8A47D
:101D30009CEF0EF09EEF0EF0D3EF0EF0000E216E32
:101D4000E6EF0EF01EC01BF02050800F1C6EAEECB4
:101D50000FF0216EE6EF0EF01EC01BF02050C00FFA
:101D60001C6EAEEC0FF0216EE6EF0EF01EC01BF005
:101D70002050940F1C6EAEEC0FF0216EE6EF0EF0CB
:101D80001EC01BF02050D40F1C6EAEEC0FF0216E65
:101D9000E6EF0EF01EC01BF0020E1C6EAEEC0FF054
:101DA000216EE6EF0EF01F50010AD8B4A2EF0EF03C
:101DB000030AD8B4ACEF0EF0010AD8B4B6EF0EF0B7
:101DC000070AD8B4C0EF0EF0CAEF0EF0215012008F
:101DD0001450D8A4EEEF0EF0F0EF0EF0F4EF0EF08A
:101DE000000E186E1EEF0FF0000E1A6E000E196E28
:101DF00014501924020F0C6E19C016F015C017F0FC
:101E0000162A05EF0FF0D8901732162E03EF0FF0B9
:101E10001750010B0D6EDAEC0AF0186E194A1A2AE7
:101E20001ABE1CEF0FF01A5009E1040E195CD8A07D
:101E30001CEF0FF01EEF0FF0F8EF0EF0185012002D
:101E4000D00EF66E220EF76E000EF86E00EEB8F0B1
:101E500010EE13F00900F5CFEEFFE550E150FAE186
:101E6000A00EF66E220EF76E000EF86E00EE57F022
:101E700010EE1AF00900F5CFEEFFE550E150FAE15F
:101E800000EE80F0380EEE6AE806FDE100EE2DF07F
:101E90002A0EEE6AE806FDE1729072920001C7EF29
:101EA00009F01450D8B457EF0FF059EF0FF069EF65
:101EB0000FF01450D96EDA6ADF30E832E832070BDF
:101EC000156E070E156467EF0FF069EF0FF06DEFF9
:101ED0000FF0000E166E7EEF0FF014C00CF051ECF8
:101EE0000AF0166E14C00CF01450D96EDA6A000EA7
:101EF000DFBE010E0D6EDAEC0AF0166E16501200FF
:101F00001B50D8A486EF0FF088EF0FF08CEF0FF086
:101F1000000E1D6EACEF0FF01BC00CF0010E0D6E2D
:101F2000DAEC0AF01D6E1BC014F01C380F0B156E96
:101F3000E8EC0EF01D6E1BC014F027EC10F01D6EC7
:101F40001BC014F01CC015F0E8EC0EF01D6E1BC099
:101F500014F027EC10F01D6E1D5012001B50D8A479
:101F6000B4EF0FF0B6EF0FF0BAEF0FF0000E1D6EEA
:101F7000DAEF0FF01BC00CF0000E0D6EDAEC0AF079
:101F80001D6E1BC014F01C380F0B156EE8EC0EF024
:101F90001D6E1BC014F027EC10F01D6E1BC014F05A
:101FA0001CC015F0E8EC0EF01D6E1BC014F027EC01
:101FB00010F01D6E1D501200010E2C6E2B50D8A477
:101FC000E4EF0FF0E6EF0FF0EAEF0FF0000E2C6EEB
:101FD00000EF10F02BC00CF0000E0E6E000E0D6E18
:101FE000000E106E060E0F6E10EC11F02BC025F0D7
:101FF000240E266E29C027F02AC028F088EC10F0A5
:102000002C5012004250D8A408EF10F00AEF10F044
:1020100015EF10F0C20E016E550E026EC0EC0CF002
:10202000716E010E426E26EF10F04204D8A41BEF31
:1020300010F01DEF10F026EF10F0C20E016E530EDF
:10204000026EC0EC0CF0716E000E426E1200145065
:10205000D8A42DEF10F02FEF10F033EF10F0000E9A
:10206000166E47EF10F014280C6E010E0D6EDAECB0
:102070000AF0030E156E980EE82EFED7152EFCD72B
:1020800014280C6E000E0D6EDAEC0AF0166E165067
:10209000120022C024F055EF10F021C016F0240EDB
:1020A000176E23C018F014EC08F024C0F6FF100ED1
:1020B000F76EF86A0800F5500009D8A462EF10F036
:1020C00064EF10F04DEF10F0000E226E000E216E46
:1020D000120077EF10F0C18AC18887EF10F0C19A23
:1020E000C19887EF10F0C19AC19887EF10F00C509B
:1020F000D96EDA6A070ED926DF50000AD8B46FEF1E
:1021000010F0010AD8B46BEF10F073EF10F012006A
:10211000270E0001CB6F25C0CCF0000ED06F000E53
:10212000CF6F000ED76F000ED66FCC0E216E26C07B
:1021300022F0CB0E236E49EC10F025500001CF2584
:10214000D96EDA6ADF6A1200AFEF10F0C08EBFEF0F
:1021500010F0C09EBFEF10F0C08EBFEF10F00C501B
:10216000D96EDA6A080ED926DF50000AD8B4A9EF72
:1021700010F0010AD8B4A6EF10F0ACEF10F0120086
:10218000010E126E0F50D8A4C8EF10F0CAEF10F075
:10219000CEEF10F0000E126EDAEF10F010C011F05A
:1021A00011461146C2501118C30B1118C26E1050BF
:1021B00054EC0CF01250120013BEE1EF10F0E3EFFC
:1021C00010F0E9EF10F012C012F013C013F0F5EFA9
:1021D00010F012C014F013C015F0141E151E144A8E
:1021E000152A14C012F015C013F012001350D8A411
:1021F000FCEF10F0FEEF10F002EF11F0000E156E84
:102200000EEF11F013C00FF014C010F0C0EC10F07E
:10221000156E13C00CF03FEC11F0156E1550120046
:102220000CC011F01AEF11F01150D96EDA6A0DC01E
:10223000DFFF112A0F06D8A010060F2806E110288C
:10224000D8A425EF11F027EF11F014EF11F01200D0
:102250009E9C3F504010D8B430EF11F032EF11F097
:102260003EEF11F002D83EEF11F00500FA6E3F503C
:10227000FD6E4050FE6EFF6AFA5012001200010E11
:102280000D6E0C50D8A447EF11F049EF11F04DEF4F
:1022900011F0000E0D6E4EEF11F0C2820D501200C3
:1022A000890F8A0F8B0F8C0F8D0F920F930F940F46
:1022B000950F960F0A02121A222AC20E0F6EDCEC3C
:1022C0000BF0716E6B0E1E6E62EC0BF0716E1200F5
:1022D000800F810F820F830F840F042000050500FB
:0322E000000001FA
:1022E400F2901200F2901200F2901200F29012009A
:0E22F400F0921200F0901200F292120012000E
:020000040030CA
:0E000000FF021F1EFF8181FF0FC00FE00F40A7
:00000001FF
