:0400000007EF00F016
:0A0008007D820BED08F049EF09F0CE
:10100000003738392F3435362A3132332D23303DED
:051010002B2569000022
:101016000600FACF76F0FBCF77F09DAC15EF08F01F
:1010260017EF08F020EF08F09EAC1CEF08F01EEF5B
:1010360008F020EF08F07AEC0AF0F2A625EF08F0A7
:1010460027EF08F040EF08F0F2A02CEF08F02EEFA3
:1010560008F040EF08F081AA33EF08F035EF08F00A
:1010660037EF08F070EC0AF081BA3CEF08F03EEF7B
:1010760008F040EF08F070EC0AF0F2A645EF08F031
:1010860047EF08F060EF08F0F2A04CEF08F04EEFE3
:1010960008F060EF08F081A853EF08F055EF08F06C
:1010A60057EF08F072EC0AF081B85CEF08F05EEFDB
:1010B60008F060EF08F072EC0AF0F2A665EF08F0AF
:1010C60067EF08F080EF08F0F2A06CEF08F06EEF23
:1010D60008F080EF08F081AC73EF08F075EF08F0C8
:1010E60077EF08F06EEC0AF081BC7CEF08F07EEF3B
:1010F60008F080EF08F06EEC0AF0F2A685EF08F033
:1011060087EF08F0A0EF08F0F2A08CEF08F08EEF62
:1011160008F0A0EF08F081AE93EF08F095EF08F025
:1011260097EF08F06CEC0AF081BE9CEF08F09EEF9A
:1011360008F0A0EF08F06CEC0AF0F2A8A5EF08F0B2
:10114600A7EF08F0B0EF08F0F2A2ACEF08F0AEEFB0
:1011560008F0B0EF08F078EC0AF0F0A6B5EF08F06A
:10116600B7EF08F0C0EF08F0F0A0BCEF08F0BEEF54
:1011760008F0C0EF08F076EC0AF0F0A8C5EF08F02A
:10118600C7EF08F0D0EF08F0F0A2CCEF08F0CEEFF2
:1011960008F0D0EF08F074EC0AF0F2AAD5EF08F0E8
:1011A600D7EF08F0E0EF08F0F2A4DCEF08F0DEEF8E
:1011B60008F0E0EF08F05AEC0AF09DA0E5EF08F021
:1011C600E7EF08F0F0EF08F09EA0ECEF08F0EEEF86
:1011D60008F0F0EF08F054EC0AF09DA2F5EF08F0E5
:1011E600F7EF08F000EF09F09EA2FCEF08F0FEEF23
:1011F60008F000EF09F065EC0AF0A0A205EF09F08F
:1012060007EF09F010EF09F0A1A20CEF09F00EEFBD
:1012160009F010EF09F00BEC0AF077C0FBFF76C07F
:10122600FAFF7D921100010E0001A86F7B50D8A431
:101236001FEF09F021EF09F025EF09F0000EA86F66
:1012460046EF09F0B1907BC078F026EC0AF07BC03F
:1012560078F0A0EC09F07BC078F07AEC09F07BC05E
:1012660078F0C6EC09F07BC078F0ECEC09F07BC0B6
:1012760078F060EC0AF07B50D96EDA6ADECF43F084
:10128600DDCF44F0B1800001A85112007C0EF66E4D
:10129600140EF76E000EF86E00EE95F010EE13F0D9
:1012A6000900F5CFEEFFE550E150FAE1680EF66E63
:1012B600140EF76E000EF86E00EE62F010EE14F0EB
:1012C6000900F5CFEEFFE550E150FAE100EE80F0BF
:1012D600150EEE6AE806FDE100EE01F0610EEE6A1B
:1012E600E806FDE17D907D92000148EF0AF085EF6A
:1012F60009F0B19E9FEF09F0B18E9FEF09F0B18E14
:101306009FEF09F07850D96EDA6A050ED926DF50BC
:10131600796E7A6A7A50000AD8B494EF09F082EFAF
:1013260009F07950000AD8B47CEF09F0010AD8B464
:101336007FEF09F082EF09F01200ABEF09F0B182FE
:10134600C5EF09F0B192C5EF09F0B192C5EF09F00A
:101356007850D96EDA6A040ED926DF50796E7A6A29
:101366007A50000AD8B4BAEF09F0A8EF09F079501C
:10137600000AD8B4A5EF09F0010AD8B4A2EF09F023
:10138600A8EF09F01200D1EF09F0B194EBEF09F0E4
:10139600B184EBEF09F0B184EBEF09F07850D96E28
:1013A600DA6A060ED926DF50796E7A6A7A50000A12
:1013B600D8B4E0EF09F0CEEF09F07950000AD8B4BE
:1013C600C8EF09F0010AD8B4CBEF09F0CEEF09F067
:1013D60012007850D96EDA6A070ED926DECF79F078
:1013E600DDCF7AF07AC079F07A6A7950B36E7850A8
:1013F600D96EDA6A070ED926DF50B26E7850D96EEA
:10140600DA6A070ED926DECF41F0DDCF42F01200B0
:10141600A1924250B36E41C0B2FF43504410D8B4BB
:1014260017EF0AF019EF0AF025EF0AF002D825EFB8
:101436000AF00500FA6E4350FD6E4450FE6EFF6AD8
:10144600FA50120012007850D96EDA6A030ED926C5
:10145600DF50796E793AB1507918CF0B7918B16EA1
:101466001200890F8A0F8B0F8C0F8D0F920F930F1F
:10147600940F950F960F800F810F820F830F840FA5
:09148600D2140003010101B03C85
:101490004EEC0AF04AEF0AF007EF00F09F0E7B6E69
:1014A00016EC09F07C6E12009E904A50CF6E49C037
:1014B000CEFF1200F2944E50D76E4DC0D6FF1200F0
:1014C000A082A192F28CF28E12009E9061C0CCFF9D
:1014D0001200454A462A1200F2901200F2901200C1
:1014E000F2901200F2901200F0921200F0901200AE
:0814F000F29212009E9C120012
:020000040030CA
:0E000000FF021F1EFF8181FF0FC00FE00F40A7
:00000001FF
