:0400000007EF00F016
:0A0008007D820BED08F02BEF09F0EC
:10100000003738392F3435362A3132332D23303DED
:051010002B2569000022
:101016000600FACF75F0FBCF76F09DAC15EF08F021
:1010260017EF08F020EF08F09EAC1CEF08F01EEF5B
:1010360008F020EF08F0AFEC0AF0F2A625EF08F072
:1010460027EF08F040EF08F0F2A02CEF08F02EEFA3
:1010560008F040EF08F081AA33EF08F035EF08F00A
:1010660037EF08F0A5EC0AF081BA3CEF08F03EEF46
:1010760008F040EF08F0A5EC0AF0F2A645EF08F0FC
:1010860047EF08F060EF08F0F2A04CEF08F04EEFE3
:1010960008F060EF08F081A853EF08F055EF08F06C
:1010A60057EF08F0A7EC0AF081B85CEF08F05EEFA6
:1010B60008F060EF08F0A7EC0AF0F2A665EF08F07A
:1010C60067EF08F080EF08F0F2A06CEF08F06EEF23
:1010D60008F080EF08F081AC73EF08F075EF08F0C8
:1010E60077EF08F0A3EC0AF081BC7CEF08F07EEF06
:1010F60008F080EF08F0A3EC0AF0F2A685EF08F0FE
:1011060087EF08F0A0EF08F0F2A08CEF08F08EEF62
:1011160008F0A0EF08F081AE93EF08F095EF08F025
:1011260097EF08F0A1EC0AF081BE9CEF08F09EEF65
:1011360008F0A0EF08F0A1EC0AF0F2A8A5EF08F07D
:10114600A7EF08F0B0EF08F0F2A2ACEF08F0AEEFB0
:1011560008F0B0EF08F0ADEC0AF0F0A6B5EF08F035
:10116600B7EF08F0C0EF08F0F0A0BCEF08F0BEEF54
:1011760008F0C0EF08F0ABEC0AF0F0A8C5EF08F0F5
:10118600C7EF08F0D0EF08F0F0A2CCEF08F0CEEFF2
:1011960008F0D0EF08F0A9EC0AF0F2AAD5EF08F0B3
:1011A600D7EF08F0E0EF08F0F2A4DCEF08F0DEEF8E
:1011B60008F0E0EF08F093EC0AF09DA0E5EF08F0E8
:1011C600E7EF08F0F0EF08F09EA0ECEF08F0EEEF86
:1011D60008F0F0EF08F043EC0AF076C0FBFF75C0AC
:1011E600FAFF7D921100010E7B6E7A50D8A4FEEFB5
:1011F60008F000EF09F004EF09F0000E7B6E29EF0E
:1012060009F0CD907AC077F05EEC0AF07AC077F0FC
:10121600D8EC09F07AC077F08CEC09F07AC077F058
:10122600B2EC09F07AC077F0FEEC09F07AC077F0FC
:1012360024EC0AF07AC077F099EC0AF07A50D96E6D
:10124600DA6ADECF47F0DDCF48F0CD807B50120062
:10125600060EF66E150EF76E000EF86E00EE80F0B6
:1012660010EE14F00900F5CFEEFFE550E150FAE17B
:10127600F20EF66E140EF76E000EF86E00EE61F0CA
:1012860010EE14F00900F5CFEEFFE550E150FAE15B
:1012960000EE94F0110EEE6AE806FDE100EE01F0B4
:1012A600600EEE6AE806FDE17D907D9200016CEF2E
:1012B6000AF0010E0001A56F000EA76F7750D8B493
:1012C60067EF09F069EF09F071EF09F07850D8A4DB
:1012D6006FEF09F071EF09F075EF09F0000EA56FD9
:1012E6008AEF09F0CECFA6F0CFCFA7F0A651A7C0C0
:1012F60079F07A6A79C07AF0796A7926000E7A22CC
:101306007850D96EDA6A79C0DEFF7AC0DDFFA55162
:10131600120097EF09F0CD9EB1EF09F0CD8EB1EF37
:1013260009F0CD8EB1EF09F07750D96EDA6A060E64
:10133600D926DF50786E796A7950000AD8B4A6EFBC
:1013460009F094EF09F07850000AD8B48EEF09F04E
:10135600010AD8B491EF09F094EF09F01200BDEF3D
:1013660009F0CD86D7EF09F0CD96D7EF09F0CD96E7
:10137600D7EF09F07750D96EDA6A050ED926DF5015
:10138600786E796A7950000AD8B4CCEF09F0BAEFD2
:1013960009F07850000AD8B4B4EF09F0010AD8B4BD
:1013A600B7EF09F0BAEF09F01200E3EF09F0CD82CA
:1013B600FDEF09F0CD92FDEF09F0CD92FDEF09F0BA
:1013C6007750D96EDA6A040ED926DF50786E796ABC
:1013D6007950000AD8B4F2EF09F0E0EF09F078503E
:1013E600000AD8B4DDEF09F0010AD8B4DAEF09F043
:1013F600E0EF09F0120009EF0AF0CD9423EF0AF0AE
:10140600CD8423EF0AF0CD8423EF0AF07750D96E0E
:10141600DA6A070ED926DF50786E796A7950000AA3
:10142600D8B418EF0AF006EF0AF07850000AD8B4DC
:1014360000EF0AF0010AD8B403EF0AF006EF0AF04B
:1014460012007750D96EDA6A080ED926DECF78F008
:10145600DDCF79F079C078F0796A7850CF6E775021
:10146600D96EDA6A080ED926DF50CE6E7750D96E5D
:10147600DA6A080ED926DECF45F0DDCF46F0120037
:101486009E904650CF6E45C0CEFF47504810D8B408
:101496004FEF0AF051EF0AF05DEF0AF002D85DEF68
:1014A6000AF00500FA6E4750FD6E4850FE6EFF6A60
:1014B600FA50120012007750D96EDA6A030ED92656
:1014C600DF50786E783ACD507818CF0B7818CD6EFD
:1014D60012008DEC0AF08A0E776E5F0E786E5CEC69
:1014E60009F07C6E6EEF0AF007EF00F0890F8A0FA5
:1014F6008B0F8C0F8D0F920F930F940F950F960FE6
:10150600800F810F820F830F840F3C1500030101AA
:101516000101AF3C8A0E7A6EF6EC08F07C6E120082
:10152600F2944C50D76E4BC0D6FF12009D809E9011
:10153600F28CF28E1200494A4A2A1200F2901200E8
:10154600F2901200F2901200F2901200F092120045
:0C155600F0901200F29212009E9C120015
:020000040030CA
:0E000000FF021F1EFF8181FF0FC00FE00F40A7
:00000001FF
