:0400000007EF00F016
:0A00080057820BED08F055EF0CF0E5
:10100000003738392F3435362A3132332D23303DED
:051010002B2569000022
:101016000600F2A611EF08F013EF08F02CEF08F027
:10102600F2A018EF08F01AEF08F02CEF08F081AAEA
:101036001FEF08F021EF08F023EF08F099EC0CF011
:1010460081BA28EF08F02AEF08F02CEF08F099ECA7
:101056000CF0F2A631EF08F033EF08F04CEF08F091
:10106600F2A038EF08F03AEF08F04CEF08F081A84C
:101076003FEF08F041EF08F043EF08F09BEC0CF06F
:1010860081B848EF08F04AEF08F04CEF08F09BEC07
:101096000CF0F2A651EF08F053EF08F06CEF08F0F1
:1010A600F2A058EF08F05AEF08F06CEF08F081ACA8
:1010B6005FEF08F061EF08F063EF08F097EC0CF0D3
:1010C60081BC68EF08F06AEF08F06CEF08F097EC67
:1010D6000CF0F2A671EF08F073EF08F08CEF08F051
:1010E600F2A078EF08F07AEF08F08CEF08F081AE06
:1010F6007FEF08F081EF08F083EF08F095EC0CF035
:1011060081BE88EF08F08AEF08F08CEF08F095ECC6
:101116000CF0F2A891EF08F093EF08F09CEF08F0BE
:10112600F2A298EF08F09AEF08F09CEF08F0A1EC15
:101136000CF0F0A6A1EF08F0A3EF08F0ACEF08F072
:10114600F0A0A8EF08F0AAEF08F0ACEF08F09FECCB
:101156000CF0F0A8B1EF08F0B3EF08F0BCEF08F020
:10116600F0A2B8EF08F0BAEF08F0BCEF08F09DEC7B
:101176000CF057921100010E4C6E4650D8B4C6EFD3
:1011860008F0C8EF08F0D8EF08F04650D96EDA6AD2
:10119600DF30E832E832070B476E070E4764D6EFBA
:1011A60008F0D8EF08F02FEF09F0000E4C6E45EF6F
:1011B60009F04650D96EDA6ADF30E832E832070BBA
:1011C600476E010E486E472AEBEF08F0D890483676
:1011D600472EE9EF08F04850FF0A496E4650D96E8F
:1011E600DA6ADF50070B020DF350150FD96EDA6A73
:1011F600DECF4AF0DDCF4BF04AC0D9FF4BC0DAFF55
:101206004950DF1645EF09F04650D96EDA6ADF30ED
:10121600E832E832070B476E010E486E472A16EF92
:1012260009F0D8904836472E14EF09F04650D96E8B
:10123600DA6ADF50070B020DF350150FD96EDA6A22
:10124600DECF49F0DDCF4AF049C0D9FF4AC0DAFF08
:101256004850DF1245EF09F04650D96EDA6ADFBC16
:1012660037EF09F03AEF09F0010E3BEF09F0000EF7
:10127600000AD8B4DCEF08F0010AD8B407EF09F089
:10128600D8EF08F04C501200010E4D6E4650D8B4FF
:101296004FEF09F051EF09F061EF09F04650D96EB2
:1012A600DA6ADF30E832E832070B486E070E486428
:1012B6005FEF09F061EF09F0B8EF09F0000E4D6E2F
:1012C600CDEF09F04650D96EDA6ADF30E832E832FF
:1012D600070B486E010E496E482A74EF09F0D89044
:1012E6004936482E72EF09F04950FF0A4A6E4650B9
:1012F600D96EDA6ADF50070B020DF3500B0FD96E69
:10130600DA6ADECF4BF0DDCF4CF04BC0D9FF4CC0D4
:10131600DAFF4A50DF16CDEF09F04650D96EDA6A89
:10132600DF30E832E832070B486E010E496E482A74
:101336009FEF09F0D8904936482E9DEF09F04650A8
:10134600D96EDA6ADF50070B020DF3500B0FD96E18
:10135600DA6ADECF4AF0DDCF4BF04AC0D9FF4BC088
:10136600DAFF4950DF12CDEF09F04750486E496A5F
:101376004950000AD8B4C2EF09F061EF09F04850AD
:10138600000AD8B465EF09F0010AD8B490EF09F065
:1013960061EF09F04D501200F8EC0AF01F0E4D6E89
:1013A600440E4E6E4DEC0AF0566E4404D8A4DEEFA1
:1013B60009F0E0EF09F0EDEF09F03250D8A4E6EFBE
:1013C60009F0E8EF09F0EDEF09F0332A010E326E6D
:1013D600FFEF09F04450D8A4F3EF09F0F5EF09F058
:1013E600FFEF09F03204D8A4FBEF09F0FDEF09F096
:1013F600FFEF09F0000E326E3350D8B405EF0AF055
:1014060007EF0AF03CEF0AF0000E336E552A030E82
:10141600556410EF0AF012EF0AF014EF0AF0010E0D
:10142600556E030E476E466855C048F013EC0CF037
:10143600566E3CEF0AF0230E4E6E7AEC0BF0220E3F
:101446004E6EAFEC0BF0D1EF09F0220E4E6E7AEC39
:101456000BF0230E4E6EAFEC0BF0D1EF09F0230E1E
:101466004E6EAFEC0BF0220E4E6EAFEC0BF0D1EFE2
:1014760009F05550010AD8B41EEF0AF0030AD8B491
:1014860028EF0AF0010AD8B432EF0AF0D1EF09F0DA
:1014960007EF00F0000E516E4D50D8B455EF0AF02C
:1014A60057EF0AF05FEF0AF04E50D8A45DEF0AF04E
:1014B6005FEF0AF063EF0AF0000E506EA4EF0AF039
:1014C6004DC046F0510E476EA6EC0AF04D50D96E4F
:1014D600DA6A020ED926DE04D8A474EF0AF076EF93
:1014E6000AF08BEF0AF05104D8A47CEF0AF07EEFE5
:1014F6000AF085EF0AF04E50D96EDA6A010EDF6EF9
:10150600A2EF0AF04E50D96EDA6ADF6AA2EF0AF04D
:101516004D50D96EDA6A020ED926DF50D8A496EF5E
:101526000AF098EF0AF0A2EF0AF05104D8A49EEF51
:101536000AF0A0EF0AF07EEF0AF085EF0AF0010E3E
:10154600506E50501200010E4C6E4650D8B4AEEF9D
:101556000AF0B0EF0AF0C8EF0AF04750D8B4B6EF79
:101566000AF0B8EF0AF0C8EF0AF04650D96EDA6A08
:10157600DF30E832E832070B486E070E4864C6EFE4
:101586000AF0C8EF0AF0CCEF0AF0000E4C6EF6EF48
:101596000AF04750D96EDA6A4650E16EE26AE730E1
:1015A600E832E832070B486E4650E16EE26AE750D1
:1015B600070B020DF350010FE16EE26AE6CF49F028
:1015C600E5CF4AF049C0E1FF4AC0E2FFE7504B6E63
:1015D600482AF0EF0AF0D8904B32482EEEEF0AF088
:1015E6004B50010BDF6E4C501200230E516E43EC34
:1015F6000BF0566E220E516E43EC0BF0566E1F0E1C
:101606004D6E70EC0CF0566E030E476E4668450E36
:10161600486E36EC0CF0566E45C055F033EF0BF0C5
:10162600230E4E6E7AEC0BF0220E4E6EAFEC0BF0E4
:1016360042EF0BF0220E4E6E7AEC0BF0230E4E6E3E
:10164600AFEC0BF042EF0BF0230E4E6EAFEC0BF04F
:10165600220E4E6EAFEC0BF0000E556E42EF0BF005
:101666005550010AD8B413EF0BF0030AD8B41DEF96
:101676000BF0010AD8B427EF0BF027EF0BF012009E
:101686005150D8A449EF0BF04BEF0BF04FEF0BF096
:10169600000E536E78EF0BF03BC054F05150D96EEC
:1016A600DA6ADF500F0B526E54505218F80B52186C
:1016B600546E5150D96EDA6ADF38070B526E5246B5
:1016C6005246524654505218C70B5218546E549CE8
:1016D6005150D96EDA6ADFAE02D0548E01D0549ED4
:1016E600540E4E6EE4EC0BF0536E535012004E50F7
:1016F600D8A480EF0BF082EF0BF084EF0BF0AEEF87
:101706000BF03AC050F04E50D96EDA6ADF500F0B2C
:101716004F6E50504F18F80B4F18506E4E50D96EF2
:10172600DA6ADF38070B4F6E4F464F464F4650502A
:101736004F18C70B4F18506E509C4E50D96EDA6A30
:10174600DFAE02D0508E01D0509E500E466E010E76
:10175600476E47EC09F012004E50D8A4B5EF0BF0D7
:10176600B7EF0BF0B9EF0BF0E3EF0BF039C050F029
:101776004E50D96EDA6ADF500F0B4F6E50504F182D
:10178600F80B4F18506E4E50D96EDA6ADF38070BD9
:101796004F6E4F464F464F4650504F18C70B4F1887
:1017A600506E509C4E50D96EDA6ADFAE02D0508E23
:1017B60001D0509E500E466E000E476E47EC09F063
:1017C60012004E50D8B4EAEF0BF0ECEF0BF0FCEF42
:1017D6000BF04E50D96EDA6ADF30E832E832070B8A
:1017E6004F6E070E4F64FAEF0BF0FCEF0BF000EFB5
:1017F6000CF0000E506E11EF0CF04EC046F0BEEC31
:1018060008F0506E4EC046F04E50D96EDA6A000EA1
:10181600DFBE010E476E47EC09F0506E50501200C5
:10182600000EF2BE010E496E4750030BAA6E46C06B
:10183600A9FF48C0A8FFA69CA69EA684F29E550EA8
:10184600A76EAA0EA76EA682A6B22CEF0CF02EEFFC
:101856000CF027EF0CF0A69449B002D0F29E01D00E
:10186600F28E010E1200010E496E4850D8A43EEFCA
:101876000CF040EF0CF044EF0CF0000E496E53EF05
:101886000CF04750030BAA6E46C0A9FFA69CA69E65
:10189600A680000000004850D96EDA6AA8CFDFFFA4
:1018A60049501200060EF66E190EF76E000EF86E0F
:1018B60000EE01F010EE23F00900F5CFEEFFE55043
:1018C600E150FAE100EE24F0220EEE6AE806FDE1B0
:1018D600579057920001CFEF09F04D50D8A476EFFC
:1018E6000CF078EF0CF07CEF0CF0000E4E6E81EFF2
:1018F6000CF04DC046F0BEEC08F04E6E4E50120095
:10190600800F810F820F830F840F890F8A0F8B0F31
:101916008C0F8D0F920F930F940F950F960F520009
:03192600011202A9
:10192A00F2901200F2901200F2901200F29012005D
:0C193A00F0921200F0901200F2921200E5
:020000040030CA
:0E000000FF021F1EFF8181FF0FC00FE00F40A7
:00000001FF
